{
  "contractName": "FlightSuretyData",
  "abi": [
    {
      "inputs": [
        {
          "internalType": "string",
          "name": "firstAirlineName",
          "type": "string"
        },
        {
          "internalType": "address",
          "name": "firstAirlineAddress",
          "type": "address"
        }
      ],
      "stateMutability": "nonpayable",
      "type": "constructor"
    },
    {
      "anonymous": false,
      "inputs": [
        {
          "indexed": false,
          "internalType": "address",
          "name": "passenger",
          "type": "address"
        },
        {
          "indexed": false,
          "internalType": "uint256",
          "name": "amount",
          "type": "uint256"
        }
      ],
      "name": "AccountWithdrawn",
      "type": "event"
    },
    {
      "anonymous": false,
      "inputs": [
        {
          "indexed": false,
          "internalType": "string",
          "name": "name",
          "type": "string"
        },
        {
          "indexed": false,
          "internalType": "address",
          "name": "addr",
          "type": "address"
        }
      ],
      "name": "AirlineFunded",
      "type": "event"
    },
    {
      "anonymous": false,
      "inputs": [
        {
          "indexed": false,
          "internalType": "string",
          "name": "name",
          "type": "string"
        },
        {
          "indexed": false,
          "internalType": "address",
          "name": "addr",
          "type": "address"
        }
      ],
      "name": "AirlineRegistered",
      "type": "event"
    },
    {
      "anonymous": false,
      "inputs": [
        {
          "indexed": false,
          "internalType": "bytes32",
          "name": "flightKey",
          "type": "bytes32"
        },
        {
          "indexed": false,
          "internalType": "address",
          "name": "airline",
          "type": "address"
        },
        {
          "indexed": false,
          "internalType": "string",
          "name": "flight",
          "type": "string"
        },
        {
          "indexed": false,
          "internalType": "string",
          "name": "from",
          "type": "string"
        },
        {
          "indexed": false,
          "internalType": "string",
          "name": "to",
          "type": "string"
        },
        {
          "indexed": false,
          "internalType": "uint256",
          "name": "timestamp",
          "type": "uint256"
        }
      ],
      "name": "FlightRegistered",
      "type": "event"
    },
    {
      "anonymous": false,
      "inputs": [
        {
          "indexed": false,
          "internalType": "address",
          "name": "airline",
          "type": "address"
        },
        {
          "indexed": false,
          "internalType": "string",
          "name": "flight",
          "type": "string"
        },
        {
          "indexed": false,
          "internalType": "uint256",
          "name": "timestamp",
          "type": "uint256"
        },
        {
          "indexed": false,
          "internalType": "uint8",
          "name": "statusCode",
          "type": "uint8"
        }
      ],
      "name": "FlightStatusUpdated",
      "type": "event"
    },
    {
      "anonymous": false,
      "inputs": [
        {
          "indexed": false,
          "internalType": "address",
          "name": "airline",
          "type": "address"
        },
        {
          "indexed": false,
          "internalType": "string",
          "name": "flight",
          "type": "string"
        },
        {
          "indexed": false,
          "internalType": "uint256",
          "name": "timestamp",
          "type": "uint256"
        },
        {
          "indexed": false,
          "internalType": "address",
          "name": "passenger",
          "type": "address"
        },
        {
          "indexed": false,
          "internalType": "uint256",
          "name": "amount",
          "type": "uint256"
        },
        {
          "indexed": false,
          "internalType": "uint256",
          "name": "multiplier",
          "type": "uint256"
        }
      ],
      "name": "InsuranceBought",
      "type": "event"
    },
    {
      "anonymous": false,
      "inputs": [
        {
          "indexed": false,
          "internalType": "address",
          "name": "passenger",
          "type": "address"
        },
        {
          "indexed": false,
          "internalType": "uint256",
          "name": "amount",
          "type": "uint256"
        }
      ],
      "name": "InsureeCredited",
      "type": "event"
    },
    {
      "stateMutability": "payable",
      "type": "fallback"
    },
    {
      "inputs": [
        {
          "internalType": "address",
          "name": "",
          "type": "address"
        }
      ],
      "name": "pendingPayments",
      "outputs": [
        {
          "internalType": "uint256",
          "name": "",
          "type": "uint256"
        }
      ],
      "stateMutability": "view",
      "type": "function"
    },
    {
      "stateMutability": "payable",
      "type": "receive"
    },
    {
      "inputs": [],
      "name": "isOperational",
      "outputs": [
        {
          "internalType": "bool",
          "name": "",
          "type": "bool"
        }
      ],
      "stateMutability": "view",
      "type": "function"
    },
    {
      "inputs": [
        {
          "internalType": "bool",
          "name": "mode",
          "type": "bool"
        }
      ],
      "name": "setOperatingStatus",
      "outputs": [],
      "stateMutability": "nonpayable",
      "type": "function"
    },
    {
      "inputs": [
        {
          "internalType": "address",
          "name": "airline",
          "type": "address"
        }
      ],
      "name": "getAirlineName",
      "outputs": [
        {
          "internalType": "string",
          "name": "",
          "type": "string"
        }
      ],
      "stateMutability": "view",
      "type": "function"
    },
    {
      "inputs": [
        {
          "internalType": "address",
          "name": "airline",
          "type": "address"
        }
      ],
      "name": "isAirline",
      "outputs": [
        {
          "internalType": "bool",
          "name": "",
          "type": "bool"
        }
      ],
      "stateMutability": "view",
      "type": "function"
    },
    {
      "inputs": [
        {
          "internalType": "address",
          "name": "airline",
          "type": "address"
        }
      ],
      "name": "isFundedAirline",
      "outputs": [
        {
          "internalType": "bool",
          "name": "",
          "type": "bool"
        }
      ],
      "stateMutability": "view",
      "type": "function"
    },
    {
      "inputs": [],
      "name": "getRegisteredAirlines",
      "outputs": [
        {
          "internalType": "address[]",
          "name": "",
          "type": "address[]"
        }
      ],
      "stateMutability": "view",
      "type": "function"
    },
    {
      "inputs": [
        {
          "internalType": "address",
          "name": "contractAddress",
          "type": "address"
        }
      ],
      "name": "authorizeCaller",
      "outputs": [],
      "stateMutability": "nonpayable",
      "type": "function"
    },
    {
      "inputs": [
        {
          "internalType": "address",
          "name": "contractAddress",
          "type": "address"
        }
      ],
      "name": "deauthorizeCaller",
      "outputs": [],
      "stateMutability": "nonpayable",
      "type": "function"
    },
    {
      "inputs": [
        {
          "internalType": "address",
          "name": "airline",
          "type": "address"
        },
        {
          "internalType": "string",
          "name": "flight",
          "type": "string"
        },
        {
          "internalType": "uint256",
          "name": "timestamp",
          "type": "uint256"
        }
      ],
      "name": "isFlight",
      "outputs": [
        {
          "internalType": "bool",
          "name": "",
          "type": "bool"
        }
      ],
      "stateMutability": "view",
      "type": "function"
    },
    {
      "inputs": [
        {
          "internalType": "address",
          "name": "airline",
          "type": "address"
        },
        {
          "internalType": "string",
          "name": "flight",
          "type": "string"
        },
        {
          "internalType": "uint256",
          "name": "timestamp",
          "type": "uint256"
        }
      ],
      "name": "isLandedFlight",
      "outputs": [
        {
          "internalType": "bool",
          "name": "",
          "type": "bool"
        }
      ],
      "stateMutability": "view",
      "type": "function"
    },
    {
      "inputs": [
        {
          "internalType": "address",
          "name": "passenger",
          "type": "address"
        },
        {
          "internalType": "address",
          "name": "airline",
          "type": "address"
        },
        {
          "internalType": "string",
          "name": "flight",
          "type": "string"
        },
        {
          "internalType": "uint256",
          "name": "timestamp",
          "type": "uint256"
        }
      ],
      "name": "isInsured",
      "outputs": [
        {
          "internalType": "bool",
          "name": "",
          "type": "bool"
        }
      ],
      "stateMutability": "view",
      "type": "function"
    },
    {
      "inputs": [
        {
          "internalType": "address",
          "name": "airline",
          "type": "address"
        },
        {
          "internalType": "string",
          "name": "flight",
          "type": "string"
        },
        {
          "internalType": "uint256",
          "name": "timestamp",
          "type": "uint256"
        }
      ],
      "name": "getFlightStatusCode",
      "outputs": [
        {
          "internalType": "uint8",
          "name": "",
          "type": "uint8"
        }
      ],
      "stateMutability": "view",
      "type": "function"
    },
    {
      "inputs": [
        {
          "internalType": "address",
          "name": "passenger",
          "type": "address"
        }
      ],
      "name": "getPendingPaymentAmount",
      "outputs": [
        {
          "internalType": "uint256",
          "name": "",
          "type": "uint256"
        }
      ],
      "stateMutability": "view",
      "type": "function"
    },
    {
      "inputs": [
        {
          "internalType": "address",
          "name": "addr",
          "type": "address"
        }
      ],
      "name": "fundAirline",
      "outputs": [],
      "stateMutability": "nonpayable",
      "type": "function"
    },
    {
      "inputs": [
        {
          "internalType": "string",
          "name": "name",
          "type": "string"
        },
        {
          "internalType": "address",
          "name": "addr",
          "type": "address"
        }
      ],
      "name": "registerAirline",
      "outputs": [
        {
          "internalType": "bool",
          "name": "success",
          "type": "bool"
        }
      ],
      "stateMutability": "nonpayable",
      "type": "function"
    },
    {
      "inputs": [
        {
          "internalType": "address",
          "name": "airline",
          "type": "address"
        },
        {
          "internalType": "string",
          "name": "flight",
          "type": "string"
        },
        {
          "internalType": "string",
          "name": "from",
          "type": "string"
        },
        {
          "internalType": "string",
          "name": "to",
          "type": "string"
        },
        {
          "internalType": "uint256",
          "name": "timestamp",
          "type": "uint256"
        }
      ],
      "name": "registerFlight",
      "outputs": [],
      "stateMutability": "nonpayable",
      "type": "function"
    },
    {
      "inputs": [
        {
          "internalType": "address",
          "name": "airline",
          "type": "address"
        },
        {
          "internalType": "string",
          "name": "flight",
          "type": "string"
        },
        {
          "internalType": "uint256",
          "name": "timestamp",
          "type": "uint256"
        },
        {
          "internalType": "address",
          "name": "passenger",
          "type": "address"
        },
        {
          "internalType": "uint256",
          "name": "amount",
          "type": "uint256"
        },
        {
          "internalType": "uint256",
          "name": "multiplier",
          "type": "uint256"
        }
      ],
      "name": "buy",
      "outputs": [],
      "stateMutability": "nonpayable",
      "type": "function"
    },
    {
      "inputs": [
        {
          "internalType": "address",
          "name": "airline",
          "type": "address"
        },
        {
          "internalType": "string",
          "name": "flight",
          "type": "string"
        },
        {
          "internalType": "uint256",
          "name": "timestamp",
          "type": "uint256"
        },
        {
          "internalType": "uint8",
          "name": "statusCode",
          "type": "uint8"
        }
      ],
      "name": "processFlightStatus",
      "outputs": [],
      "stateMutability": "nonpayable",
      "type": "function"
    },
    {
      "inputs": [
        {
          "internalType": "address",
          "name": "passenger",
          "type": "address"
        }
      ],
      "name": "pay",
      "outputs": [],
      "stateMutability": "nonpayable",
      "type": "function"
    }
  ],
  "bytecode": "0x60806040526001600060146101000a81548160ff021916908315150217905550600067ffffffffffffffff8111156200003d576200003c620004a1565b5b6040519080825280602002602001820160405280156200006c5781602001602082028036833780820191505090505b506001908051906020019062000084929190620002f1565b50600067ffffffffffffffff811115620000a357620000a2620004a1565b5b604051908082528060200260200182016040528015620000d25781602001602082028036833780820191505090505b5060049080519060200190620000ea929190620002f1565b50600067ffffffffffffffff811115620001095762000108620004a1565b5b604051908082528060200260200182016040528015620001385781602001602082028036833780820191505090505b50600690805190602001906200015092919062000380565b503480156200015e57600080fd5b5060405162003c0838038062003c088339818101604052810190620001849190620006a3565b336000806101000a81548173ffffffffffffffffffffffffffffffffffffffff021916908373ffffffffffffffffffffffffffffffffffffffff160217905550604051806060016040528083815260200160011515815260200160001515815250600360008373ffffffffffffffffffffffffffffffffffffffff1673ffffffffffffffffffffffffffffffffffffffff168152602001908152602001600020600082015181600001908051906020019062000242929190620003d2565b5060208201518160010160006101000a81548160ff02191690831515021790555060408201518160010160016101000a81548160ff0219169083151502179055509050506004819080600181540180825580915050600190039060005260206000200160009091909190916101000a81548173ffffffffffffffffffffffffffffffffffffffff021916908373ffffffffffffffffffffffffffffffffffffffff16021790555050506200076d565b8280548282559060005260206000209081019282156200036d579160200282015b828111156200036c5782518260006101000a81548173ffffffffffffffffffffffffffffffffffffffff021916908373ffffffffffffffffffffffffffffffffffffffff1602179055509160200191906001019062000312565b5b5090506200037c919062000463565b5090565b828054828255906000526020600020908101928215620003bf579160200282015b82811115620003be578251825591602001919060010190620003a1565b5b509050620003ce919062000482565b5090565b828054620003e09062000738565b90600052602060002090601f01602090048101928262000404576000855562000450565b82601f106200041f57805160ff191683800117855562000450565b8280016001018555821562000450579182015b828111156200044f57825182559160200191906001019062000432565b5b5090506200045f919062000463565b5090565b5b808211156200047e57600081600090555060010162000464565b5090565b5b808211156200049d57600081600090555060010162000483565b5090565b7f4e487b7100000000000000000000000000000000000000000000000000000000600052604160045260246000fd5b6000604051905090565b600080fd5b600080fd5b600080fd5b600080fd5b6000601f19601f8301169050919050565b6200050a82620004ee565b810181811067ffffffffffffffff821117156200052c576200052b620004a1565b5b80604052505050565b600062000541620004d0565b90506200054f8282620004ff565b919050565b600067ffffffffffffffff821115620005725762000571620004a1565b5b6200057d82620004ee565b9050602081019050919050565b60005b83811015620005aa5780820151818401526020810190506200058d565b83811115620005ba576000848401525b50505050565b6000620005d7620005d18462000554565b62000535565b905082815260208101848484011115620005f657620005f5620004e9565b5b620006038482856200058a565b509392505050565b600082601f830112620006235762000622620004e4565b5b815162000635848260208601620005c0565b91505092915050565b600073ffffffffffffffffffffffffffffffffffffffff82169050919050565b60006200066b826200063e565b9050919050565b6200067d816200065e565b81146200068957600080fd5b50565b6000815190506200069d8162000672565b92915050565b60008060408385031215620006bd57620006bc620004da565b5b600083015167ffffffffffffffff811115620006de57620006dd620004df565b5b620006ec858286016200060b565b9250506020620006ff858286016200068c565b9150509250929050565b7f4e487b7100000000000000000000000000000000000000000000000000000000600052602260045260246000fd5b600060028204905060018216806200075157607f821691505b60208210810362000767576200076662000709565b5b50919050565b61348b806200077d6000396000f3fe6080604052600436106101235760003560e01c80637f38e526116100a0578063c5e16c1e11610064578063c5e16c1e14610435578063cd905dff1461045e578063e6143d9514610489578063e7bdde3b146104c6578063f3ba4e1b146104ef5761012a565b80637f38e5261461032a578063a22a1af514610367578063a283fd0014610390578063c19b4fae146103cd578063c23bcf091461040a5761012a565b80632c388d5d116100e75780632c388d5d14610235578063351ba61b1461025e578063524b61001461029b5780636873c21d146102d85780636fbb8798146103015761012a565b8063015ea1a01461012c5780630c11dedd146101695780630e248a11146101925780630e2c4129146101cf578063110466ed1461020c5761012a565b3661012a57005b005b34801561013857600080fd5b50610153600480360381019061014e9190612395565b61052c565b6040516101609190612424565b60405180910390f35b34801561017557600080fd5b50610190600480360381019061018b919061243f565b6105b2565b005b34801561019e57600080fd5b506101b960048036038101906101b4919061243f565b610878565b6040516101c69190612424565b60405180910390f35b3480156101db57600080fd5b506101f660048036038101906101f1919061246c565b6108d1565b6040516102039190612424565b60405180910390f35b34801561021857600080fd5b50610233600480360381019061022e91906124f8565b610c50565b005b34801561024157600080fd5b5061025c6004803603810190610257919061243f565b610cfb565b005b34801561026a57600080fd5b5061028560048036038101906102809190612395565b610dd1565b6040516102929190612541565b60405180910390f35b3480156102a757600080fd5b506102c260048036038101906102bd919061243f565b610e4f565b6040516102cf91906125f5565b60405180910390f35b3480156102e457600080fd5b506102ff60048036038101906102fa919061243f565b610f23565b005b34801561030d57600080fd5b506103286004803603810190610323919061243f565b610ff7565b005b34801561033657600080fd5b50610351600480360381019061034c919061243f565b611198565b60405161035e9190612626565b60405180910390f35b34801561037357600080fd5b5061038e60048036038101906103899190612641565b6111b0565b005b34801561039c57600080fd5b506103b760048036038101906103b2919061243f565b61140c565b6040516103c49190612626565b60405180910390f35b3480156103d957600080fd5b506103f460048036038101906103ef91906126f0565b611455565b6040516104019190612424565b60405180910390f35b34801561041657600080fd5b5061041f611621565b60405161042c9190612836565b60405180910390f35b34801561044157600080fd5b5061045c60048036038101906104579190612858565b6116af565b005b34801561046a57600080fd5b50610473611bf1565b6040516104809190612424565b60405180910390f35b34801561049557600080fd5b506104b060048036038101906104ab9190612395565b611c07565b6040516104bd9190612424565b60405180910390f35b3480156104d257600080fd5b506104ed60048036038101906104e89190612960565b611c85565b005b3480156104fb57600080fd5b506105166004803603810190610511919061243f565b611ea7565b6040516105239190612424565b60405180910390f35b60008060ff16600560006105858888888080601f016020809104026020016040519081016040528093929190818152602001838380828437600081840152601f19601f8201169050808301925050505050505087611f00565b815260200190815260200160002060000160019054906101000a900460ff1660ff16119050949350505050565b6105ba611bf1565b6105f9576040517f08c379a00000000000000000000000000000000000000000000000000000000081526004016105f090612a5a565b60405180910390fd5b6001600260003373ffffffffffffffffffffffffffffffffffffffff1673ffffffffffffffffffffffffffffffffffffffff168152602001908152602001600020541461067b576040517f08c379a000000000000000000000000000000000000000000000000000000000815260040161067290612ac6565b60405180910390fd5b3273ffffffffffffffffffffffffffffffffffffffff168173ffffffffffffffffffffffffffffffffffffffff16146106e9576040517f08c379a00000000000000000000000000000000000000000000000000000000081526004016106e090612b32565b60405180910390fd5b6000600860008373ffffffffffffffffffffffffffffffffffffffff1673ffffffffffffffffffffffffffffffffffffffff168152602001908152602001600020541161076b576040517f08c379a000000000000000000000000000000000000000000000000000000000815260040161076290612b9e565b60405180910390fd5b6000600860008373ffffffffffffffffffffffffffffffffffffffff1673ffffffffffffffffffffffffffffffffffffffff1681526020019081526020016000205490506000600860008473ffffffffffffffffffffffffffffffffffffffff1673ffffffffffffffffffffffffffffffffffffffff168152602001908152602001600020819055508173ffffffffffffffffffffffffffffffffffffffff166108fc829081150290604051600060405180830381858888f1935050505015801561083a573d6000803e3d6000fd5b507fdfeacc538b4e5daa9b6f7bd5267be179488543805cd27e8022d2883a4dc847d7828260405161086c929190612bcd565b60405180910390a15050565b6000600360008373ffffffffffffffffffffffffffffffffffffffff1673ffffffffffffffffffffffffffffffffffffffff16815260200190815260200160002060010160009054906101000a900460ff169050919050565b60006108db611bf1565b61091a576040517f08c379a000000000000000000000000000000000000000000000000000000000815260040161091190612a5a565b60405180910390fd5b6001600260003373ffffffffffffffffffffffffffffffffffffffff1673ffffffffffffffffffffffffffffffffffffffff168152602001908152602001600020541461099c576040517f08c379a000000000000000000000000000000000000000000000000000000000815260040161099390612ac6565b60405180910390fd5b81600073ffffffffffffffffffffffffffffffffffffffff168173ffffffffffffffffffffffffffffffffffffffff1603610a0c576040517f08c379a0000000000000000000000000000000000000000000000000000000008152600401610a0390612c42565b60405180910390fd5b600360008473ffffffffffffffffffffffffffffffffffffffff1673ffffffffffffffffffffffffffffffffffffffff16815260200190815260200160002060010160009054906101000a900460ff1615610a9c576040517f08c379a0000000000000000000000000000000000000000000000000000000008152600401610a9390612cd4565b60405180910390fd5b600060019050604051806060016040528087878080601f016020809104026020016040519081016040528093929190818152602001838380828437600081840152601f19601f82011690508083019250505050505050815260200160011515815260200160001515815250600360008673ffffffffffffffffffffffffffffffffffffffff1673ffffffffffffffffffffffffffffffffffffffff1681526020019081526020016000206000820151816000019080519060200190610b629291906121ef565b5060208201518160010160006101000a81548160ff02191690831515021790555060408201518160010160016101000a81548160ff0219169083151502179055509050506004849080600181540180825580915050600190039060005260206000200160009091909190916101000a81548173ffffffffffffffffffffffffffffffffffffffff021916908373ffffffffffffffffffffffffffffffffffffffff1602179055507f4389233d1d7e817e3a41447176300b89c596c24ed4d58896d501ddb378abe2c4868686604051610c3c93929190612d30565b60405180910390a180925050509392505050565b60008054906101000a900473ffffffffffffffffffffffffffffffffffffffff1673ffffffffffffffffffffffffffffffffffffffff163373ffffffffffffffffffffffffffffffffffffffff1614610cde576040517f08c379a0000000000000000000000000000000000000000000000000000000008152600401610cd590612dae565b60405180910390fd5b80600060146101000a81548160ff02191690831515021790555050565b60008054906101000a900473ffffffffffffffffffffffffffffffffffffffff1673ffffffffffffffffffffffffffffffffffffffff163373ffffffffffffffffffffffffffffffffffffffff1614610d89576040517f08c379a0000000000000000000000000000000000000000000000000000000008152600401610d8090612dae565b60405180910390fd5b6001600260008373ffffffffffffffffffffffffffffffffffffffff1673ffffffffffffffffffffffffffffffffffffffff1681526020019081526020016000208190555050565b600060056000610e268787878080601f016020809104026020016040519081016040528093929190818152602001838380828437600081840152601f19601f8201169050808301925050505050505086611f00565b815260200190815260200160002060000160019054906101000a900460ff169050949350505050565b6060600360008373ffffffffffffffffffffffffffffffffffffffff1673ffffffffffffffffffffffffffffffffffffffff1681526020019081526020016000206000018054610e9e90612dfd565b80601f0160208091040260200160405190810160405280929190818152602001828054610eca90612dfd565b8015610f175780601f10610eec57610100808354040283529160200191610f17565b820191906000526020600020905b815481529060010190602001808311610efa57829003601f168201915b50505050509050919050565b60008054906101000a900473ffffffffffffffffffffffffffffffffffffffff1673ffffffffffffffffffffffffffffffffffffffff163373ffffffffffffffffffffffffffffffffffffffff1614610fb1576040517f08c379a0000000000000000000000000000000000000000000000000000000008152600401610fa890612dae565b60405180910390fd5b600260008273ffffffffffffffffffffffffffffffffffffffff1673ffffffffffffffffffffffffffffffffffffffff1681526020019081526020016000206000905550565b610fff611bf1565b61103e576040517f08c379a000000000000000000000000000000000000000000000000000000000815260040161103590612a5a565b60405180910390fd5b6001600260003373ffffffffffffffffffffffffffffffffffffffff1673ffffffffffffffffffffffffffffffffffffffff16815260200190815260200160002054146110c0576040517f08c379a00000000000000000000000000000000000000000000000000000000081526004016110b790612ac6565b60405180910390fd5b6001600360008373ffffffffffffffffffffffffffffffffffffffff1673ffffffffffffffffffffffffffffffffffffffff16815260200190815260200160002060010160016101000a81548160ff0219169083151502179055507fb79e695bf38dcea3887c0922d0f819d2c35e4197231fb49fc074b143a81feae2600360008373ffffffffffffffffffffffffffffffffffffffff1673ffffffffffffffffffffffffffffffffffffffff1681526020019081526020016000206000018260405161118d929190612ec3565b60405180910390a150565b60086020528060005260406000206000915090505481565b6111b8611bf1565b6111f7576040517f08c379a00000000000000000000000000000000000000000000000000000000081526004016111ee90612a5a565b60405180910390fd5b6001600260003373ffffffffffffffffffffffffffffffffffffffff1673ffffffffffffffffffffffffffffffffffffffff1681526020019081526020016000205414611279576040517f08c379a000000000000000000000000000000000000000000000000000000000815260040161127090612ac6565b60405180910390fd5b60006112ca8888888080601f016020809104026020016040519081016040528093929190818152602001838380828437600081840152601f19601f8201169050808301925050505050505087611f00565b90506007600082815260200190815260200160002060405180608001604052808673ffffffffffffffffffffffffffffffffffffffff16815260200185815260200184815260200160001515815250908060018154018082558091505060019003906000526020600020906004020160009091909190915060008201518160000160006101000a81548173ffffffffffffffffffffffffffffffffffffffff021916908373ffffffffffffffffffffffffffffffffffffffff160217905550602082015181600101556040820151816002015560608201518160030160006101000a81548160ff02191690831515021790555050507fc1647762ee49a904197616f0bd3213b3b925a37d94f32d699214e1b760858210888888888888886040516113fa9796959493929190612ef3565b60405180910390a15050505050505050565b6000600860008373ffffffffffffffffffffffffffffffffffffffff1673ffffffffffffffffffffffffffffffffffffffff168152602001908152602001600020549050919050565b600080600760006114ab8888888080601f016020809104026020016040519081016040528093929190818152602001838380828437600081840152601f19601f8201169050808301925050505050505087611f00565b8152602001908152602001600020805480602002602001604051908101604052809291908181526020016000905b8282101561159057838290600052602060002090600402016040518060800160405290816000820160009054906101000a900473ffffffffffffffffffffffffffffffffffffffff1673ffffffffffffffffffffffffffffffffffffffff1673ffffffffffffffffffffffffffffffffffffffff16815260200160018201548152602001600282015481526020016003820160009054906101000a900460ff161515151581525050815260200190600101906114d9565b50505050905060005b8151811015611611578773ffffffffffffffffffffffffffffffffffffffff168282815181106115cc576115cb612f5d565b5b60200260200101516000015173ffffffffffffffffffffffffffffffffffffffff16036115fe57600192505050611618565b808061160990612fbb565b915050611599565b5060009150505b95945050505050565b606060048054806020026020016040519081016040528092919081815260200182805480156116a557602002820191906000526020600020905b8160009054906101000a900473ffffffffffffffffffffffffffffffffffffffff1673ffffffffffffffffffffffffffffffffffffffff168152602001906001019080831161165b575b5050505050905090565b6116b7611bf1565b6116f6576040517f08c379a00000000000000000000000000000000000000000000000000000000081526004016116ed90612a5a565b60405180910390fd5b6001600260003373ffffffffffffffffffffffffffffffffffffffff1673ffffffffffffffffffffffffffffffffffffffff1681526020019081526020016000205414611778576040517f08c379a000000000000000000000000000000000000000000000000000000000815260040161176f90612ac6565b60405180910390fd5b87600073ffffffffffffffffffffffffffffffffffffffff168173ffffffffffffffffffffffffffffffffffffffff16036117e8576040517f08c379a00000000000000000000000000000000000000000000000000000000081526004016117df90612c42565b60405180910390fd5b883073ffffffffffffffffffffffffffffffffffffffff1663f3ba4e1b826040518263ffffffff1660e01b81526004016118229190613003565b602060405180830381865afa15801561183f573d6000803e3d6000fd5b505050506040513d601f19601f820116820180604052508101906118639190613033565b6118a2576040517f08c379a0000000000000000000000000000000000000000000000000000000008152600401611899906130d2565b60405180910390fd5b60006118f38b8b8b8080601f016020809104026020016040519081016040528093929190818152602001838380828437600081840152601f19601f8201169050808301925050505050505086611f00565b90506005600082815260200190815260200160002060000160009054906101000a900460ff1615611959576040517f08c379a000000000000000000000000000000000000000000000000000000000815260040161195090613164565b60405180910390fd5b6040518060e00160405280600115158152602001600060ff1681526020018581526020018c73ffffffffffffffffffffffffffffffffffffffff1681526020018b8b8080601f016020809104026020016040519081016040528093929190818152602001838380828437600081840152601f19601f82011690508083019250505050505050815260200189898080601f016020809104026020016040519081016040528093929190818152602001838380828437600081840152601f19601f82011690508083019250505050505050815260200187878080601f016020809104026020016040519081016040528093929190818152602001838380828437600081840152601f19601f820116905080830192505050505050508152506005600083815260200190815260200160002060008201518160000160006101000a81548160ff02191690831515021790555060208201518160000160016101000a81548160ff021916908360ff1602179055506040820151816001015560608201518160020160006101000a81548173ffffffffffffffffffffffffffffffffffffffff021916908373ffffffffffffffffffffffffffffffffffffffff1602179055506080820151816003019080519060200190611b369291906121ef565b5060a0820151816004019080519060200190611b539291906121ef565b5060c0820151816005019080519060200190611b709291906121ef565b5090505060068190806001815401808255809150506001900390600052602060002001600090919091909150557f37c1994f3df92b4103a59a8ac512e992643d17dd4273b59013aa2f5111b3de67818c8c8c8c8c8c8c8c604051611bdc9998979695949392919061319d565b60405180910390a15050505050505050505050565b60008060149054906101000a900460ff16905090565b600060056000611c5c8787878080601f016020809104026020016040519081016040528093929190818152602001838380828437600081840152601f19601f8201169050808301925050505050505086611f00565b815260200190815260200160002060000160009054906101000a900460ff169050949350505050565b611c8d611bf1565b611ccc576040517f08c379a0000000000000000000000000000000000000000000000000000000008152600401611cc390612a5a565b60405180910390fd5b6001600260003373ffffffffffffffffffffffffffffffffffffffff1673ffffffffffffffffffffffffffffffffffffffff1681526020019081526020016000205414611d4e576040517f08c379a0000000000000000000000000000000000000000000000000000000008152600401611d4590612ac6565b60405180910390fd5b6000611d9f8686868080601f016020809104026020016040519081016040528093929190818152602001838380828437600081840152601f19601f8201169050808301925050505050505085611f00565b9050600060ff166005600083815260200190815260200160002060000160019054906101000a900460ff1660ff1603611e6057816005600083815260200190815260200160002060000160016101000a81548160ff021916908360ff160217905550601460ff168260ff1603611e5f57611e5e8686868080601f016020809104026020016040519081016040528093929190818152602001838380828437600081840152601f19601f8201169050808301925050505050505085611f36565b5b5b7f3f8930fd52e84bc32c0c2e5d060a9cfa59066160d5197e39f17d16ebbcaa7db68686868686604051611e97959493929190613219565b60405180910390a1505050505050565b6000600360008373ffffffffffffffffffffffffffffffffffffffff1673ffffffffffffffffffffffffffffffffffffffff16815260200190815260200160002060010160019054906101000a900460ff169050919050565b6000838383604051602001611f179392919061330c565b6040516020818303038152906040528051906020012090509392505050565b611f3e611bf1565b611f7d576040517f08c379a0000000000000000000000000000000000000000000000000000000008152600401611f7490612a5a565b60405180910390fd5b6001600260003373ffffffffffffffffffffffffffffffffffffffff1673ffffffffffffffffffffffffffffffffffffffff1681526020019081526020016000205414611fff576040517f08c379a0000000000000000000000000000000000000000000000000000000008152600401611ff690612ac6565b60405180910390fd5b600061200c848484611f00565b905060005b60076000838152602001908152602001600020805490508110156121e857600060076000848152602001908152602001600020828154811061205657612055612f5d565b5b90600052602060002090600402016040518060800160405290816000820160009054906101000a900473ffffffffffffffffffffffffffffffffffffffff1673ffffffffffffffffffffffffffffffffffffffff1673ffffffffffffffffffffffffffffffffffffffff16815260200160018201548152602001600282015481526020016003820160009054906101000a900460ff16151515158152505090506000151581606001511515036121d4576001816060019015159081151581525050600060648260400151836020015161212f9190613345565b61213991906133ce565b90508060086000846000015173ffffffffffffffffffffffffffffffffffffffff1673ffffffffffffffffffffffffffffffffffffffff168152602001908152602001600020600082825461218e91906133ff565b925050819055507f868591bb2b953c2ab9230c3d982fc24b5b255e5d8d9bcd0c1a5e6ad5cddccab68260000151826040516121ca929190612bcd565b60405180910390a1505b5080806121e090612fbb565b915050612011565b5050505050565b8280546121fb90612dfd565b90600052602060002090601f01602090048101928261221d5760008555612264565b82601f1061223657805160ff1916838001178555612264565b82800160010185558215612264579182015b82811115612263578251825591602001919060010190612248565b5b5090506122719190612275565b5090565b5b8082111561228e576000816000905550600101612276565b5090565b600080fd5b600080fd5b600073ffffffffffffffffffffffffffffffffffffffff82169050919050565b60006122c78261229c565b9050919050565b6122d7816122bc565b81146122e257600080fd5b50565b6000813590506122f4816122ce565b92915050565b600080fd5b600080fd5b600080fd5b60008083601f84011261231f5761231e6122fa565b5b8235905067ffffffffffffffff81111561233c5761233b6122ff565b5b60208301915083600182028301111561235857612357612304565b5b9250929050565b6000819050919050565b6123728161235f565b811461237d57600080fd5b50565b60008135905061238f81612369565b92915050565b600080600080606085870312156123af576123ae612292565b5b60006123bd878288016122e5565b945050602085013567ffffffffffffffff8111156123de576123dd612297565b5b6123ea87828801612309565b935093505060406123fd87828801612380565b91505092959194509250565b60008115159050919050565b61241e81612409565b82525050565b60006020820190506124396000830184612415565b92915050565b60006020828403121561245557612454612292565b5b6000612463848285016122e5565b91505092915050565b60008060006040848603121561248557612484612292565b5b600084013567ffffffffffffffff8111156124a3576124a2612297565b5b6124af86828701612309565b935093505060206124c2868287016122e5565b9150509250925092565b6124d581612409565b81146124e057600080fd5b50565b6000813590506124f2816124cc565b92915050565b60006020828403121561250e5761250d612292565b5b600061251c848285016124e3565b91505092915050565b600060ff82169050919050565b61253b81612525565b82525050565b60006020820190506125566000830184612532565b92915050565b600081519050919050565b600082825260208201905092915050565b60005b8381101561259657808201518184015260208101905061257b565b838111156125a5576000848401525b50505050565b6000601f19601f8301169050919050565b60006125c78261255c565b6125d18185612567565b93506125e1818560208601612578565b6125ea816125ab565b840191505092915050565b6000602082019050818103600083015261260f81846125bc565b905092915050565b6126208161235f565b82525050565b600060208201905061263b6000830184612617565b92915050565b600080600080600080600060c0888a0312156126605761265f612292565b5b600061266e8a828b016122e5565b975050602088013567ffffffffffffffff81111561268f5761268e612297565b5b61269b8a828b01612309565b965096505060406126ae8a828b01612380565b94505060606126bf8a828b016122e5565b93505060806126d08a828b01612380565b92505060a06126e18a828b01612380565b91505092959891949750929550565b60008060008060006080868803121561270c5761270b612292565b5b600061271a888289016122e5565b955050602061272b888289016122e5565b945050604086013567ffffffffffffffff81111561274c5761274b612297565b5b61275888828901612309565b9350935050606061276b88828901612380565b9150509295509295909350565b600081519050919050565b600082825260208201905092915050565b6000819050602082019050919050565b6127ad816122bc565b82525050565b60006127bf83836127a4565b60208301905092915050565b6000602082019050919050565b60006127e382612778565b6127ed8185612783565b93506127f883612794565b8060005b8381101561282957815161281088826127b3565b975061281b836127cb565b9250506001810190506127fc565b5085935050505092915050565b6000602082019050818103600083015261285081846127d8565b905092915050565b60008060008060008060008060a0898b03121561287857612877612292565b5b60006128868b828c016122e5565b985050602089013567ffffffffffffffff8111156128a7576128a6612297565b5b6128b38b828c01612309565b9750975050604089013567ffffffffffffffff8111156128d6576128d5612297565b5b6128e28b828c01612309565b9550955050606089013567ffffffffffffffff81111561290557612904612297565b5b6129118b828c01612309565b935093505060806129248b828c01612380565b9150509295985092959890939650565b61293d81612525565b811461294857600080fd5b50565b60008135905061295a81612934565b92915050565b60008060008060006080868803121561297c5761297b612292565b5b600061298a888289016122e5565b955050602086013567ffffffffffffffff8111156129ab576129aa612297565b5b6129b788828901612309565b945094505060406129ca88828901612380565b92505060606129db8882890161294b565b9150509295509295909350565b7f436f6e74726163742069732063757272656e746c79206e6f74206f706572617460008201527f696f6e616c000000000000000000000000000000000000000000000000000000602082015250565b6000612a44602583612567565b9150612a4f826129e8565b604082019050919050565b60006020820190508181036000830152612a7381612a37565b9050919050565b7f43616c6c6572206973206e6f7420617574686f72697a65640000000000000000600082015250565b6000612ab0601883612567565b9150612abb82612a7a565b602082019050919050565b60006020820190508181036000830152612adf81612aa3565b9050919050565b7f436f6e747261637473206e6f7420616c6c6f7765640000000000000000000000600082015250565b6000612b1c601583612567565b9150612b2782612ae6565b602082019050919050565b60006020820190508181036000830152612b4b81612b0f565b9050919050565b7f4e6f2066756e6420617661696c61626c6520666f72207769746864726177616c600082015250565b6000612b88602083612567565b9150612b9382612b52565b602082019050919050565b60006020820190508181036000830152612bb781612b7b565b9050919050565b612bc7816122bc565b82525050565b6000604082019050612be26000830185612bbe565b612bef6020830184612617565b9392505050565b7f496e76616c696420616464726573730000000000000000000000000000000000600082015250565b6000612c2c600f83612567565b9150612c3782612bf6565b602082019050919050565b60006020820190508181036000830152612c5b81612c1f565b9050919050565b7f4169726c696e652068617320616c7265616479206265656e207265676973746560008201527f7265640000000000000000000000000000000000000000000000000000000000602082015250565b6000612cbe602383612567565b9150612cc982612c62565b604082019050919050565b60006020820190508181036000830152612ced81612cb1565b9050919050565b82818337600083830152505050565b6000612d0f8385612567565b9350612d1c838584612cf4565b612d25836125ab565b840190509392505050565b60006040820190508181036000830152612d4b818587612d03565b9050612d5a6020830184612bbe565b949350505050565b7f43616c6c6572206973206e6f7420636f6e7472616374206f776e657200000000600082015250565b6000612d98601c83612567565b9150612da382612d62565b602082019050919050565b60006020820190508181036000830152612dc781612d8b565b9050919050565b7f4e487b7100000000000000000000000000000000000000000000000000000000600052602260045260246000fd5b60006002820490506001821680612e1557607f821691505b602082108103612e2857612e27612dce565b5b50919050565b60008190508160005260206000209050919050565b60008154612e5081612dfd565b612e5a8186612567565b94506001821660008114612e755760018114612e8757612eba565b60ff1983168652602086019350612eba565b612e9085612e2e565b60005b83811015612eb257815481890152600182019150602081019050612e93565b808801955050505b50505092915050565b60006040820190508181036000830152612edd8185612e43565b9050612eec6020830184612bbe565b9392505050565b600060c082019050612f08600083018a612bbe565b8181036020830152612f1b81888a612d03565b9050612f2a6040830187612617565b612f376060830186612bbe565b612f446080830185612617565b612f5160a0830184612617565b98975050505050505050565b7f4e487b7100000000000000000000000000000000000000000000000000000000600052603260045260246000fd5b7f4e487b7100000000000000000000000000000000000000000000000000000000600052601160045260246000fd5b6000612fc68261235f565b91507fffffffffffffffffffffffffffffffffffffffffffffffffffffffffffffffff8203612ff857612ff7612f8c565b5b600182019050919050565b60006020820190506130186000830184612bbe565b92915050565b60008151905061302d816124cc565b92915050565b60006020828403121561304957613048612292565b5b60006130578482850161301e565b91505092915050565b7f4f6e6c79206578697374696e6720616e642066756e646564206169726c696e6560008201527f732061726520616c6c6f77656400000000000000000000000000000000000000602082015250565b60006130bc602d83612567565b91506130c782613060565b604082019050919050565b600060208201905081810360008301526130eb816130af565b9050919050565b7f466c696768742068617320616c7265616479206265656e20726567697374657260008201527f6564000000000000000000000000000000000000000000000000000000000000602082015250565b600061314e602283612567565b9150613159826130f2565b604082019050919050565b6000602082019050818103600083015261317d81613141565b9050919050565b6000819050919050565b61319781613184565b82525050565b600060c0820190506131b2600083018c61318e565b6131bf602083018b612bbe565b81810360408301526131d281898b612d03565b905081810360608301526131e7818789612d03565b905081810360808301526131fc818587612d03565b905061320b60a0830184612617565b9a9950505050505050505050565b600060808201905061322e6000830188612bbe565b8181036020830152613241818688612d03565b90506132506040830185612617565b61325d6060830184612532565b9695505050505050565b60008160601b9050919050565b600061327f82613267565b9050919050565b600061329182613274565b9050919050565b6132a96132a4826122bc565b613286565b82525050565b600081905092915050565b60006132c58261255c565b6132cf81856132af565b93506132df818560208601612578565b80840191505092915050565b6000819050919050565b6133066133018261235f565b6132eb565b82525050565b60006133188286613298565b60148201915061332882856132ba565b915061333482846132f5565b602082019150819050949350505050565b60006133508261235f565b915061335b8361235f565b9250817fffffffffffffffffffffffffffffffffffffffffffffffffffffffffffffffff048311821515161561339457613393612f8c565b5b828202905092915050565b7f4e487b7100000000000000000000000000000000000000000000000000000000600052601260045260246000fd5b60006133d98261235f565b91506133e48361235f565b9250826133f4576133f361339f565b5b828204905092915050565b600061340a8261235f565b91506134158361235f565b9250827fffffffffffffffffffffffffffffffffffffffffffffffffffffffffffffffff0382111561344a57613449612f8c565b5b82820190509291505056fea2646970667358221220c14cd965df07499152776a7594a7ce79bb94327e054ffc5ef24775fbdb5f757e64736f6c634300080e0033",
  "immutableReferences": {},
  "source": "// SPDX-License-Identifier: MIT\n\npragma solidity >=0.4.22 <0.9.0;\n\ncontract FlightSuretyData {\n    // Data Variables //\n\n    address private contractOwner;\n    bool private operational = true;\n\n    uint256 constant M = 1;\n    address[] multiCalls = new address[](0);\n\n    // Restrict data contract callers\n    mapping(address => uint256) private authorizedContracts;\n\n    // Airlines\n    struct Airline {\n        string name;\n        bool isRegistered;\n        bool isFunded;\n    }\n\n    mapping(address => Airline) private airlines;\n    address[] registeredAirlines = new address[](0);\n\n    // Flights\n    struct Flight {\n        bool isRegistered;\n        uint8 statusCode; // 0: unknown (in-flight), >0: landed\n        uint256 updatedTimestamp;\n        address airline;\n        string flight;\n        string from;\n        string to;\n    }\n    mapping(bytes32 => Flight) private flights;\n    bytes32[] registeredFlights = new bytes32[](0);\n\n    uint8 private constant STATUS_CODE_UNKNOWN = 0;\n    uint8 private constant STATUS_CODE_ON_TIME = 10;\n    uint8 private constant STATUS_CODE_LATE_AIRLINE = 20;\n    uint8 private constant STATUS_CODE_LATE_WEATHER = 30;\n    uint8 private constant STATUS_CODE_LATE_TECHNICAL = 40;\n    uint8 private constant STATUS_CODE_LATE_OTHER = 50;\n\n    // Insurance\n    struct Insurance {\n        address passenger;\n        uint256 amount; // Passenger insurance payment\n        uint256 multiplier; // General damages multiplier (1.5x by default)\n        bool isCredited;\n    }\n    mapping(bytes32 => Insurance[]) insuredPassengersPerFlight;\n    mapping(address => uint256) public pendingPayments;\n\n    // Funding\n    struct Fund {\n        uint256 amount;\n    }\n\n    mapping(address => Fund) fund;\n\n    // Modifier //\n\n    /**\n     * @dev Modifier that requires the \"operational\" boolean variable to be \"true\"\n     */\n    modifier requireIsOperational() {\n        require(isOperational(), \"Contract is currently not operational\");\n        _;\n    }\n\n    /**\n     * @dev Modifier that requires the \"ContractOwner\" account to be the function caller\n     */\n    modifier requireContractOwner() {\n        require(msg.sender == contractOwner, \"Caller is not contract owner\");\n        _;\n    }\n\n    /**\n     * @dev Modifier that requires function caller to be authorized\n     */\n    modifier requireIsCallerAuthorized() {\n        require(\n            authorizedContracts[msg.sender] == 1,\n            \"Caller is not authorized\"\n        );\n        _;\n    }\n\n    /**\n     * @dev Modifier that requires address to be valid\n     */\n    modifier requireValidAddress(address addr) {\n        require(addr != address(0), \"Invalid address\");\n        _;\n    }\n\n    /**\n     * @dev Modifier that requires airline to be funded\n     */\n    modifier requireAirlineIsFunded(address airline) {\n        require(\n            this.isFundedAirline(airline),\n            \"Only existing and funded airlines are allowed\"\n        );\n        _;\n    }\n\n    // Utility Functions //\n\n    /**\n     * @dev Get the operating status of a contract\n     * @return boolean A value that states if the contract is operational or not\n     */\n    function isOperational() public view returns (bool) {\n        return operational;\n    }\n\n    /**\n     * @dev Set the operating status of the contract\n     */\n    function setOperatingStatus(bool mode) external requireContractOwner {\n        operational = mode;\n    }\n\n    /**\n     * @dev Get airline details\n     * @return Airline with the provided address\n     */\n    function getAirlineName(address airline)\n        external\n        view\n        returns (string memory)\n    {\n        return airlines[airline].name;\n    }\n\n    /**\n     * @dev Check if the address is a registered airline\n     * @return A bool confirming whether or not the address is a registered airline\n     */\n    function isAirline(address airline) external view returns (bool) {\n        return airlines[airline].isRegistered;\n    }\n\n    /**\n     * @dev Check if the address is a funded airline\n     * @return A bool confirming whether or not the address is a funded airline\n     */\n    function isFundedAirline(address airline) external view returns (bool) {\n        return airlines[airline].isFunded;\n    }\n\n    /**\n     * @dev Get registered airlines\n     * @return array with the addresses of all registered airlines\n     */\n    function getRegisteredAirlines() external view returns (address[] memory) {\n        return registeredAirlines;\n    }\n\n    /**\n     * @dev Adds address to authorized contracts\n     */\n    function authorizeCaller(address contractAddress)\n        external\n        requireContractOwner\n    {\n        authorizedContracts[contractAddress] = 1;\n    }\n\n    /**\n     * @dev Removes address from authorized contracts\n     */\n    function deauthorizeCaller(address contractAddress)\n        external\n        requireContractOwner\n    {\n        delete authorizedContracts[contractAddress];\n    }\n\n    /**\n     * @dev Get the flight key given the airline, flight and timestamp\n     * @return key The key for the flight\n     */\n    function getFlightKey(\n        address airline,\n        string memory flight,\n        uint256 timestamp\n    ) internal pure returns (bytes32) {\n        return keccak256(abi.encodePacked(airline, flight, timestamp));\n    }\n\n    /**\n     * @dev Check if the flight is registered\n     */\n    function isFlight(\n        address airline,\n        string calldata flight,\n        uint256 timestamp\n    ) external view returns (bool) {\n        return flights[getFlightKey(airline, flight, timestamp)].isRegistered;\n    }\n\n    /**\n     * @dev Check if the flight status code is \"landed\"\n     */\n    function isLandedFlight(\n        address airline,\n        string calldata flight,\n        uint256 timestamp\n    ) external view returns (bool) {\n        return\n            flights[getFlightKey(airline, flight, timestamp)].statusCode >\n            STATUS_CODE_UNKNOWN;\n    }\n\n    /**\n     * @dev Check if the passenger is registerd for the flight\n     */\n    function isInsured(\n        address passenger,\n        address airline,\n        string calldata flight,\n        uint256 timestamp\n    ) external view returns (bool) {\n        Insurance[] memory insuredPassengers = insuredPassengersPerFlight[\n            getFlightKey(airline, flight, timestamp)\n        ];\n        for (uint256 i = 0; i < insuredPassengers.length; i++) {\n            if (insuredPassengers[i].passenger == passenger) {\n                return true;\n            }\n        }\n        return false;\n    }\n\n    /**\n     * @dev Check if the flight is registered\n     */\n    function getFlightStatusCode(\n        address airline,\n        string calldata flight,\n        uint256 timestamp\n    ) external view returns (uint8) {\n        return flights[getFlightKey(airline, flight, timestamp)].statusCode;\n    }\n\n    /**\n     * @dev Return the pending payment\n     */\n    function getPendingPaymentAmount(address passenger)\n        external\n        view\n        returns (uint256)\n    {\n        return pendingPayments[passenger];\n    }\n\n    // Event Definitions //\n\n    event AirlineFunded(string name, address addr);\n    event AirlineRegistered(string name, address addr);\n    event FlightRegistered(\n        bytes32 flightKey,\n        address airline,\n        string flight,\n        string from,\n        string to,\n        uint256 timestamp\n    );\n    event InsuranceBought(\n        address airline,\n        string flight,\n        uint256 timestamp,\n        address passenger,\n        uint256 amount,\n        uint256 multiplier\n    );\n    event FlightStatusUpdated(\n        address airline,\n        string flight,\n        uint256 timestamp,\n        uint8 statusCode\n    );\n    event InsureeCredited(address passenger, uint256 amount);\n    event AccountWithdrawn(address passenger, uint256 amount);\n\n    constructor(string memory firstAirlineName, address firstAirlineAddress) {\n        contractOwner = msg.sender;\n\n        // Airline contract initialization\n        airlines[firstAirlineAddress] = Airline({\n            name: firstAirlineName,\n            isRegistered: true,\n            isFunded: false\n        });\n\n        registeredAirlines.push(firstAirlineAddress);\n    }\n\n    // Smart Contract Functions //\n\n    /**\n     * @dev Submit funding for airline\n     */\n    function fundAirline(address addr)\n        external\n        requireIsOperational\n        requireIsCallerAuthorized\n    {\n        airlines[addr].isFunded = true;\n        emit AirlineFunded(airlines[addr].name, addr);\n    }\n\n    /**\n     * @dev Add an airline to the registration queue\n     */\n    function registerAirline(string calldata name, address addr)\n        external\n        requireIsOperational\n        requireIsCallerAuthorized\n        requireValidAddress(addr)\n        returns (bool success)\n    {\n        require(\n            !airlines[addr].isRegistered,\n            \"Airline has already been registered\"\n        );\n\n        bool result = true;\n\n        airlines[addr] = Airline({\n            name: name,\n            isFunded: false,\n            isRegistered: true\n        });\n\n        registeredAirlines.push(addr);\n\n        emit AirlineRegistered(name, addr);\n\n        return result;\n    }\n\n    /**\n     * @dev Register a flight\n     */\n    function registerFlight(\n        address airline,\n        string calldata flight,\n        string calldata from,\n        string calldata to,\n        uint256 timestamp\n    )\n        external\n        requireIsOperational\n        requireIsCallerAuthorized\n        requireValidAddress(airline)\n        requireAirlineIsFunded(airline)\n    {\n        bytes32 flightKey = getFlightKey(airline, flight, timestamp);\n        require(\n            !flights[flightKey].isRegistered,\n            \"Flight has already been registered\"\n        );\n\n        flights[flightKey] = Flight({\n            isRegistered: true,\n            statusCode: 0,\n            updatedTimestamp: timestamp,\n            airline: airline,\n            flight: flight,\n            from: from,\n            to: to\n        });\n\n        registeredFlights.push(flightKey);\n\n        emit FlightRegistered(flightKey, airline, flight, from, to, timestamp);\n    }\n\n    /**\n     * @dev Buy insurance for a flight\n     */\n    function buy(\n        address airline,\n        string calldata flight,\n        uint256 timestamp,\n        address passenger,\n        uint256 amount,\n        uint256 multiplier\n    ) external requireIsOperational requireIsCallerAuthorized {\n        bytes32 flightKey = getFlightKey(airline, flight, timestamp);\n\n        insuredPassengersPerFlight[flightKey].push(\n            Insurance({\n                passenger: passenger,\n                amount: amount,\n                multiplier: multiplier,\n                isCredited: false\n            })\n        );\n\n        emit InsuranceBought(\n            airline,\n            flight,\n            timestamp,\n            passenger,\n            amount,\n            multiplier\n        );\n    }\n\n    /**\n     * @dev Process flights\n     */\n    function processFlightStatus(\n        address airline,\n        string calldata flight,\n        uint256 timestamp,\n        uint8 statusCode\n    ) external requireIsOperational requireIsCallerAuthorized {\n        //require(!this.isLandedFlight(airline, flight, timestamp), \"Flight already landed\");\n\n        bytes32 flightKey = getFlightKey(airline, flight, timestamp);\n\n        if (flights[flightKey].statusCode == STATUS_CODE_UNKNOWN) {\n            flights[flightKey].statusCode = statusCode;\n            if (statusCode == STATUS_CODE_LATE_AIRLINE) {\n                creditInsurees(airline, flight, timestamp);\n            }\n        }\n\n        emit FlightStatusUpdated(airline, flight, timestamp, statusCode);\n    }\n\n    /**\n     * @dev Credits payouts to insurees\n     */\n    function creditInsurees(\n        address airline,\n        string memory flight,\n        uint256 timestamp\n    ) internal requireIsOperational requireIsCallerAuthorized {\n        bytes32 flightKey = getFlightKey(airline, flight, timestamp);\n\n        for (\n            uint256 i = 0;\n            i < insuredPassengersPerFlight[flightKey].length;\n            i++\n        ) {\n            Insurance memory insurance = insuredPassengersPerFlight[flightKey][\n                i\n            ];\n\n            if (insurance.isCredited == false) {\n                insurance.isCredited = true;\n                uint256 amount = (insurance.amount * insurance.multiplier) /\n                    100;\n                pendingPayments[insurance.passenger] += amount;\n\n                emit InsureeCredited(insurance.passenger, amount);\n            }\n        }\n    }\n\n    /**\n     * @dev Transfers eligible payout funds to insuree\n     */\n    function pay(address passenger)\n        external\n        requireIsOperational\n        requireIsCallerAuthorized\n    {\n        // Checks\n        require(passenger == tx.origin, \"Contracts not allowed\");\n        require(\n            pendingPayments[passenger] > 0,\n            \"No fund available for withdrawal\"\n        );\n\n        // Effects\n        uint256 amount = pendingPayments[passenger];\n        pendingPayments[passenger] = 0;\n\n        // Cast address to payable address\n        payable(address(passenger)).transfer(amount);\n\n        emit AccountWithdrawn(passenger, amount);\n    }\n\n    /**\n     * @dev Fallback function for funding smart contract.\n     */\n    fallback() external payable {}\n\n    receive() external payable {}\n}\n",
  "sourcePath": "/home/peter/FlightSurety/contracts/FlightSuretyData.sol",
  "compiler": {
    "name": "solc",
    "version": "0.8.14+commit.80d49f37.Emscripten.clang"
  },
  "schemaVersion": "3.4.7",
  "updatedAt": "2022-06-12T08:46:11.279Z",
  "devdoc": {
    "kind": "dev",
    "methods": {
      "authorizeCaller(address)": {
        "details": "Adds address to authorized contracts"
      },
      "buy(address,string,uint256,address,uint256,uint256)": {
        "details": "Buy insurance for a flight"
      },
      "deauthorizeCaller(address)": {
        "details": "Removes address from authorized contracts"
      },
      "fundAirline(address)": {
        "details": "Submit funding for airline"
      },
      "getAirlineName(address)": {
        "details": "Get airline details",
        "returns": {
          "_0": "Airline with the provided address"
        }
      },
      "getFlightStatusCode(address,string,uint256)": {
        "details": "Check if the flight is registered"
      },
      "getPendingPaymentAmount(address)": {
        "details": "Return the pending payment"
      },
      "getRegisteredAirlines()": {
        "details": "Get registered airlines",
        "returns": {
          "_0": "array with the addresses of all registered airlines"
        }
      },
      "isAirline(address)": {
        "details": "Check if the address is a registered airline",
        "returns": {
          "_0": "A bool confirming whether or not the address is a registered airline"
        }
      },
      "isFlight(address,string,uint256)": {
        "details": "Check if the flight is registered"
      },
      "isFundedAirline(address)": {
        "details": "Check if the address is a funded airline",
        "returns": {
          "_0": "A bool confirming whether or not the address is a funded airline"
        }
      },
      "isInsured(address,address,string,uint256)": {
        "details": "Check if the passenger is registerd for the flight"
      },
      "isLandedFlight(address,string,uint256)": {
        "details": "Check if the flight status code is \"landed\""
      },
      "isOperational()": {
        "details": "Get the operating status of a contract",
        "returns": {
          "_0": "boolean A value that states if the contract is operational or not"
        }
      },
      "pay(address)": {
        "details": "Transfers eligible payout funds to insuree"
      },
      "processFlightStatus(address,string,uint256,uint8)": {
        "details": "Process flights"
      },
      "registerAirline(string,address)": {
        "details": "Add an airline to the registration queue"
      },
      "registerFlight(address,string,string,string,uint256)": {
        "details": "Register a flight"
      },
      "setOperatingStatus(bool)": {
        "details": "Set the operating status of the contract"
      }
    },
    "version": 1
  },
  "userdoc": {
    "kind": "user",
    "methods": {},
    "version": 1
  }
}