{
  "contractName": "FlightSuretyApp",
  "abi": [
    {
      "inputs": [
        {
          "internalType": "address",
          "name": "dataContract",
          "type": "address"
        }
      ],
      "stateMutability": "nonpayable",
      "type": "constructor"
    },
    {
      "anonymous": false,
      "inputs": [
        {
          "indexed": false,
          "internalType": "address",
          "name": "addr",
          "type": "address"
        },
        {
          "indexed": false,
          "internalType": "uint256",
          "name": "amount",
          "type": "uint256"
        }
      ],
      "name": "AirlineFunded",
      "type": "event"
    },
    {
      "anonymous": false,
      "inputs": [
        {
          "indexed": false,
          "internalType": "string",
          "name": "name",
          "type": "string"
        },
        {
          "indexed": false,
          "internalType": "address",
          "name": "addr",
          "type": "address"
        },
        {
          "indexed": false,
          "internalType": "bool",
          "name": "success",
          "type": "bool"
        },
        {
          "indexed": false,
          "internalType": "uint256",
          "name": "votes",
          "type": "uint256"
        }
      ],
      "name": "AirlineRegistered",
      "type": "event"
    },
    {
      "anonymous": false,
      "inputs": [
        {
          "indexed": false,
          "internalType": "address",
          "name": "airline",
          "type": "address"
        },
        {
          "indexed": false,
          "internalType": "string",
          "name": "flight",
          "type": "string"
        },
        {
          "indexed": false,
          "internalType": "string",
          "name": "from",
          "type": "string"
        },
        {
          "indexed": false,
          "internalType": "string",
          "name": "to",
          "type": "string"
        },
        {
          "indexed": false,
          "internalType": "uint256",
          "name": "timestamp",
          "type": "uint256"
        }
      ],
      "name": "FlightRegistered",
      "type": "event"
    },
    {
      "anonymous": false,
      "inputs": [
        {
          "indexed": false,
          "internalType": "address",
          "name": "airline",
          "type": "address"
        },
        {
          "indexed": false,
          "internalType": "string",
          "name": "flight",
          "type": "string"
        },
        {
          "indexed": false,
          "internalType": "uint256",
          "name": "timestamp",
          "type": "uint256"
        },
        {
          "indexed": false,
          "internalType": "uint8",
          "name": "status",
          "type": "uint8"
        }
      ],
      "name": "FlightStatusInfo",
      "type": "event"
    },
    {
      "anonymous": false,
      "inputs": [
        {
          "indexed": false,
          "internalType": "address",
          "name": "airline",
          "type": "address"
        },
        {
          "indexed": false,
          "internalType": "string",
          "name": "flight",
          "type": "string"
        },
        {
          "indexed": false,
          "internalType": "uint256",
          "name": "timestamp",
          "type": "uint256"
        },
        {
          "indexed": false,
          "internalType": "address",
          "name": "passenger",
          "type": "address"
        },
        {
          "indexed": false,
          "internalType": "uint256",
          "name": "amount",
          "type": "uint256"
        },
        {
          "indexed": false,
          "internalType": "uint256",
          "name": "multiplier",
          "type": "uint256"
        }
      ],
      "name": "InsuranceBought",
      "type": "event"
    },
    {
      "anonymous": false,
      "inputs": [
        {
          "indexed": false,
          "internalType": "address",
          "name": "airline",
          "type": "address"
        },
        {
          "indexed": false,
          "internalType": "string",
          "name": "flight",
          "type": "string"
        },
        {
          "indexed": false,
          "internalType": "uint256",
          "name": "timestamp",
          "type": "uint256"
        },
        {
          "indexed": false,
          "internalType": "uint8",
          "name": "status",
          "type": "uint8"
        }
      ],
      "name": "OracleReport",
      "type": "event"
    },
    {
      "anonymous": false,
      "inputs": [
        {
          "indexed": false,
          "internalType": "uint8",
          "name": "index",
          "type": "uint8"
        },
        {
          "indexed": false,
          "internalType": "address",
          "name": "airline",
          "type": "address"
        },
        {
          "indexed": false,
          "internalType": "string",
          "name": "flight",
          "type": "string"
        },
        {
          "indexed": false,
          "internalType": "uint256",
          "name": "timestamp",
          "type": "uint256"
        }
      ],
      "name": "OracleRequest",
      "type": "event"
    },
    {
      "inputs": [],
      "name": "REGISTRATION_FEE",
      "outputs": [
        {
          "internalType": "uint256",
          "name": "",
          "type": "uint256"
        }
      ],
      "stateMutability": "view",
      "type": "function"
    },
    {
      "inputs": [
        {
          "internalType": "string",
          "name": "name",
          "type": "string"
        },
        {
          "internalType": "address",
          "name": "addr",
          "type": "address"
        }
      ],
      "name": "registerAirline",
      "outputs": [
        {
          "internalType": "bool",
          "name": "success",
          "type": "bool"
        },
        {
          "internalType": "uint256",
          "name": "votes",
          "type": "uint256"
        }
      ],
      "stateMutability": "nonpayable",
      "type": "function"
    },
    {
      "inputs": [],
      "name": "fundAirline",
      "outputs": [],
      "stateMutability": "payable",
      "type": "function"
    },
    {
      "inputs": [
        {
          "internalType": "string",
          "name": "flight",
          "type": "string"
        },
        {
          "internalType": "string",
          "name": "from",
          "type": "string"
        },
        {
          "internalType": "string",
          "name": "to",
          "type": "string"
        },
        {
          "internalType": "uint256",
          "name": "timestamp",
          "type": "uint256"
        }
      ],
      "name": "registerFlight",
      "outputs": [],
      "stateMutability": "nonpayable",
      "type": "function"
    },
    {
      "inputs": [
        {
          "internalType": "address",
          "name": "airline",
          "type": "address"
        },
        {
          "internalType": "string",
          "name": "flight",
          "type": "string"
        },
        {
          "internalType": "uint256",
          "name": "timestamp",
          "type": "uint256"
        }
      ],
      "name": "buyInsurance",
      "outputs": [],
      "stateMutability": "payable",
      "type": "function"
    },
    {
      "inputs": [],
      "name": "registerOracle",
      "outputs": [],
      "stateMutability": "payable",
      "type": "function"
    },
    {
      "inputs": [],
      "name": "getMyIndexes",
      "outputs": [
        {
          "internalType": "uint8[3]",
          "name": "",
          "type": "uint8[3]"
        }
      ],
      "stateMutability": "view",
      "type": "function"
    },
    {
      "inputs": [
        {
          "internalType": "uint8",
          "name": "index",
          "type": "uint8"
        },
        {
          "internalType": "address",
          "name": "airline",
          "type": "address"
        },
        {
          "internalType": "string",
          "name": "flight",
          "type": "string"
        },
        {
          "internalType": "uint256",
          "name": "timestamp",
          "type": "uint256"
        },
        {
          "internalType": "uint8",
          "name": "statusCode",
          "type": "uint8"
        }
      ],
      "name": "submitOracleResponse",
      "outputs": [],
      "stateMutability": "nonpayable",
      "type": "function"
    },
    {
      "inputs": [
        {
          "internalType": "address",
          "name": "airline",
          "type": "address"
        },
        {
          "internalType": "string",
          "name": "flight",
          "type": "string"
        },
        {
          "internalType": "uint256",
          "name": "timestamp",
          "type": "uint256"
        }
      ],
      "name": "fetchFlightStatus",
      "outputs": [],
      "stateMutability": "nonpayable",
      "type": "function"
    },
    {
      "inputs": [],
      "name": "pay",
      "outputs": [],
      "stateMutability": "nonpayable",
      "type": "function"
    }
  ],
  "bytecode": "0x60806040526000600360006101000a81548160ff021916908360ff1602179055503480156200002d57600080fd5b5060405162003b3038038062003b30833981810160405281019062000053919062000145565b33600160006101000a81548173ffffffffffffffffffffffffffffffffffffffff021916908373ffffffffffffffffffffffffffffffffffffffff160217905550806000806101000a81548173ffffffffffffffffffffffffffffffffffffffff021916908373ffffffffffffffffffffffffffffffffffffffff1602179055505062000177565b600080fd5b600073ffffffffffffffffffffffffffffffffffffffff82169050919050565b60006200010d82620000e0565b9050919050565b6200011f8162000100565b81146200012b57600080fd5b50565b6000815190506200013f8162000114565b92915050565b6000602082840312156200015e576200015d620000db565b5b60006200016e848285016200012e565b91505092915050565b6139a980620001876000396000f3fe6080604052600436106100915760003560e01c806364b4f7511161005957806364b4f7511461013c5780638855d7a7146101675780639ed1892714610190578063c10f27001461019a578063f83f11c0146101c357610091565b80630e2c4129146100965780631b9265b8146100d45780632f6721d0146100eb578063339d2590146101075780635f1cc0e614610111575b600080fd5b3480156100a257600080fd5b506100bd60048036038101906100b891906125ed565b6101ec565b6040516100cb929190612681565b60405180910390f35b3480156100e057600080fd5b506100e9610a6a565b005b610105600480360381019061010091906126d6565b610bc5565b005b61010f6110d4565b005b34801561011d57600080fd5b5061012661128f565b6040516101339190612802565b60405180910390f35b34801561014857600080fd5b5061015161149d565b60405161015e919061281d565b60405180910390f35b34801561017357600080fd5b5061018e60048036038101906101899190612838565b6114a9565b005b6101986117aa565b005b3480156101a657600080fd5b506101c160048036038101906101bc919061292d565b6119ef565b005b3480156101cf57600080fd5b506101ea60048036038101906101e591906126d6565b611e9a565b005b60008060008054906101000a900473ffffffffffffffffffffffffffffffffffffffff1673ffffffffffffffffffffffffffffffffffffffff1663cd905dff6040518163ffffffff1660e01b8152600401602060405180830381865afa15801561025a573d6000803e3d6000fd5b505050506040513d601f19601f8201168201806040525081019061027e91906129f3565b6102bd576040517f08c379a00000000000000000000000000000000000000000000000000000000081526004016102b490612aa3565b60405180910390fd5b82600073ffffffffffffffffffffffffffffffffffffffff168173ffffffffffffffffffffffffffffffffffffffff160361032d576040517f08c379a000000000000000000000000000000000000000000000000000000000815260040161032490612b0f565b60405180910390fd5b3360008054906101000a900473ffffffffffffffffffffffffffffffffffffffff1673ffffffffffffffffffffffffffffffffffffffff1663f3ba4e1b826040518263ffffffff1660e01b81526004016103879190612b3e565b602060405180830381865afa1580156103a4573d6000803e3d6000fd5b505050506040513d601f19601f820116820180604052508101906103c891906129f3565b610407576040517f08c379a00000000000000000000000000000000000000000000000000000000081526004016103fe90612bcb565b60405180910390fd5b6000808060009054906101000a900473ffffffffffffffffffffffffffffffffffffffff1673ffffffffffffffffffffffffffffffffffffffff1663c23bcf096040518163ffffffff1660e01b8152600401600060405180830381865afa158015610476573d6000803e3d6000fd5b505050506040513d6000823e3d601f19601f8201168201806040525081019061049f9190612d4f565b905060008151036105515760008054906101000a900473ffffffffffffffffffffffffffffffffffffffff1673ffffffffffffffffffffffffffffffffffffffff16630e2c41298a8a8a6040518463ffffffff1660e01b815260040161050793929190612dd4565b6020604051808303816000875af1158015610526573d6000803e3d6000fd5b505050506040513d601f19601f8201168201806040525081019061054a91906129f3565b9150610995565b6004815110156106025760008054906101000a900473ffffffffffffffffffffffffffffffffffffffff1673ffffffffffffffffffffffffffffffffffffffff16630e2c41298a8a8a6040518463ffffffff1660e01b81526004016105b893929190612dd4565b6020604051808303816000875af11580156105d7573d6000803e3d6000fd5b505050506040513d601f19601f820116820180604052508101906105fb91906129f3565b9150610994565b6000805b600260008a73ffffffffffffffffffffffffffffffffffffffff1673ffffffffffffffffffffffffffffffffffffffff1681526020019081526020016000208054905081101561071a573373ffffffffffffffffffffffffffffffffffffffff16600260008b73ffffffffffffffffffffffffffffffffffffffff1673ffffffffffffffffffffffffffffffffffffffff16815260200190815260200160002082815481106106b8576106b7612e06565b5b9060005260206000200160009054906101000a900473ffffffffffffffffffffffffffffffffffffffff1673ffffffffffffffffffffffffffffffffffffffff1603610707576001915061071a565b808061071290612e64565b915050610606565b50801561075c576040517f08c379a000000000000000000000000000000000000000000000000000000000815260040161075390612f1e565b60405180910390fd5b600260008973ffffffffffffffffffffffffffffffffffffffff1673ffffffffffffffffffffffffffffffffffffffff168152602001908152602001600020339080600181540180825580915050600190039060005260206000200160009091909190916101000a81548173ffffffffffffffffffffffffffffffffffffffff021916908373ffffffffffffffffffffffffffffffffffffffff1602179055506002825161080a9190612f6d565b600260008a73ffffffffffffffffffffffffffffffffffffffff1673ffffffffffffffffffffffffffffffffffffffff16815260200190815260200160002080549050106109925760008054906101000a900473ffffffffffffffffffffffffffffffffffffffff1673ffffffffffffffffffffffffffffffffffffffff16630e2c41298b8b8b6040518463ffffffff1660e01b81526004016108af93929190612dd4565b6020604051808303816000875af11580156108ce573d6000803e3d6000fd5b505050506040513d601f19601f820116820180604052508101906108f291906129f3565b9250600067ffffffffffffffff81111561090f5761090e612bfc565b5b60405190808252806020026020018201604052801561093d5781602001602082028036833780820191505090505b50600260008a73ffffffffffffffffffffffffffffffffffffffff1673ffffffffffffffffffffffffffffffffffffffff16815260200190815260200160002090805190602001906109909291906123b3565b505b505b5b7f5830152b09b4f01c34ead661365969a1f6683c57b8d4039a6ec2f3ca64c4274c89898985600260008d73ffffffffffffffffffffffffffffffffffffffff1673ffffffffffffffffffffffffffffffffffffffff16815260200190815260200160002080549050604051610a0e959493929190612f9e565b60405180910390a181600260008973ffffffffffffffffffffffffffffffffffffffff1673ffffffffffffffffffffffffffffffffffffffff168152602001908152602001600020805490509550955050505050935093915050565b60008054906101000a900473ffffffffffffffffffffffffffffffffffffffff1673ffffffffffffffffffffffffffffffffffffffff1663cd905dff6040518163ffffffff1660e01b8152600401602060405180830381865afa158015610ad5573d6000803e3d6000fd5b505050506040513d601f19601f82011682018060405250810190610af991906129f3565b610b38576040517f08c379a0000000000000000000000000000000000000000000000000000000008152600401610b2f90612aa3565b60405180910390fd5b60008054906101000a900473ffffffffffffffffffffffffffffffffffffffff1673ffffffffffffffffffffffffffffffffffffffff16630c11dedd336040518263ffffffff1660e01b8152600401610b919190612b3e565b600060405180830381600087803b158015610bab57600080fd5b505af1158015610bbf573d6000803e3d6000fd5b50505050565b60008054906101000a900473ffffffffffffffffffffffffffffffffffffffff1673ffffffffffffffffffffffffffffffffffffffff1663cd905dff6040518163ffffffff1660e01b8152600401602060405180830381865afa158015610c30573d6000803e3d6000fd5b505050506040513d601f19601f82011682018060405250810190610c5491906129f3565b610c93576040517f08c379a0000000000000000000000000000000000000000000000000000000008152600401610c8a90612aa3565b60405180910390fd5b600034118015610cab5750670de0b6b3a76400003411155b610cea576040517f08c379a0000000000000000000000000000000000000000000000000000000008152600401610ce19061305e565b60405180910390fd5b60008054906101000a900473ffffffffffffffffffffffffffffffffffffffff1673ffffffffffffffffffffffffffffffffffffffff1663e6143d95858585856040518563ffffffff1660e01b8152600401610d49949392919061307e565b602060405180830381865afa158015610d66573d6000803e3d6000fd5b505050506040513d601f19601f82011682018060405250810190610d8a91906129f3565b610dc9576040517f08c379a0000000000000000000000000000000000000000000000000000000008152600401610dc09061310a565b60405180910390fd5b60008054906101000a900473ffffffffffffffffffffffffffffffffffffffff1673ffffffffffffffffffffffffffffffffffffffff1663015ea1a0858585856040518563ffffffff1660e01b8152600401610e28949392919061307e565b602060405180830381865afa158015610e45573d6000803e3d6000fd5b505050506040513d601f19601f82011682018060405250810190610e6991906129f3565b15610ea9576040517f08c379a0000000000000000000000000000000000000000000000000000000008152600401610ea090613176565b60405180910390fd5b60008054906101000a900473ffffffffffffffffffffffffffffffffffffffff1673ffffffffffffffffffffffffffffffffffffffff1663c19b4fae33868686866040518663ffffffff1660e01b8152600401610f0a959493929190613196565b602060405180830381865afa158015610f27573d6000803e3d6000fd5b505050506040513d601f19601f82011682018060405250810190610f4b91906129f3565b15610f8b576040517f08c379a0000000000000000000000000000000000000000000000000000000008152600401610f8290613256565b60405180910390fd5b60008054906101000a900473ffffffffffffffffffffffffffffffffffffffff1673ffffffffffffffffffffffffffffffffffffffff166108fc349081150290604051600060405180830381858888f19350505050158015610ff1573d6000803e3d6000fd5b5060008054906101000a900473ffffffffffffffffffffffffffffffffffffffff1673ffffffffffffffffffffffffffffffffffffffff1663a22a1af585858585333460966040518863ffffffff1660e01b81526004016110589796959493929190613276565b600060405180830381600087803b15801561107257600080fd5b505af1158015611086573d6000803e3d6000fd5b505050507fc1647762ee49a904197616f0bd3213b3b925a37d94f32d699214e1b76085821084848484333460966040516110c69796959493929190613276565b60405180910390a150505050565b60008054906101000a900473ffffffffffffffffffffffffffffffffffffffff1673ffffffffffffffffffffffffffffffffffffffff1663cd905dff6040518163ffffffff1660e01b8152600401602060405180830381865afa15801561113f573d6000803e3d6000fd5b505050506040513d601f19601f8201168201806040525081019061116391906129f3565b6111a2576040517f08c379a000000000000000000000000000000000000000000000000000000000815260040161119990612aa3565b60405180910390fd5b670de0b6b3a76400003410156111ed576040517f08c379a00000000000000000000000000000000000000000000000000000000081526004016111e49061332c565b60405180910390fd5b60006111f833611f9c565b9050604051806040016040528060011515815260200182815250600460003373ffffffffffffffffffffffffffffffffffffffff1673ffffffffffffffffffffffffffffffffffffffff16815260200190815260200160002060008201518160000160006101000a81548160ff02191690831515021790555060208201518160010190600361128892919061243d565b5090505050565b6112976124d7565b60008054906101000a900473ffffffffffffffffffffffffffffffffffffffff1673ffffffffffffffffffffffffffffffffffffffff1663cd905dff6040518163ffffffff1660e01b8152600401602060405180830381865afa158015611302573d6000803e3d6000fd5b505050506040513d601f19601f8201168201806040525081019061132691906129f3565b611365576040517f08c379a000000000000000000000000000000000000000000000000000000000815260040161135c90612aa3565b60405180910390fd5b600460003373ffffffffffffffffffffffffffffffffffffffff1673ffffffffffffffffffffffffffffffffffffffff16815260200190815260200160002060000160009054906101000a900460ff166113f4576040517f08c379a00000000000000000000000000000000000000000000000000000000081526004016113eb90613398565b60405180910390fd5b600460003373ffffffffffffffffffffffffffffffffffffffff1673ffffffffffffffffffffffffffffffffffffffff168152602001908152602001600020600101600380602002604051908101604052809291908260038015611493576020028201916000905b82829054906101000a900460ff1660ff168152602001906001019060208260000104928301926001038202915080841161145c5790505b5050505050905090565b670de0b6b3a764000081565b60008054906101000a900473ffffffffffffffffffffffffffffffffffffffff1673ffffffffffffffffffffffffffffffffffffffff1663cd905dff6040518163ffffffff1660e01b8152600401602060405180830381865afa158015611514573d6000803e3d6000fd5b505050506040513d601f19601f8201168201806040525081019061153891906129f3565b611577576040517f08c379a000000000000000000000000000000000000000000000000000000000815260040161156e90612aa3565b60405180910390fd5b33600073ffffffffffffffffffffffffffffffffffffffff168173ffffffffffffffffffffffffffffffffffffffff16036115e7576040517f08c379a00000000000000000000000000000000000000000000000000000000081526004016115de90612b0f565b60405180910390fd5b3360008054906101000a900473ffffffffffffffffffffffffffffffffffffffff1673ffffffffffffffffffffffffffffffffffffffff1663f3ba4e1b826040518263ffffffff1660e01b81526004016116419190612b3e565b602060405180830381865afa15801561165e573d6000803e3d6000fd5b505050506040513d601f19601f8201168201806040525081019061168291906129f3565b6116c1576040517f08c379a00000000000000000000000000000000000000000000000000000000081526004016116b890612bcb565b60405180910390fd5b60008054906101000a900473ffffffffffffffffffffffffffffffffffffffff1673ffffffffffffffffffffffffffffffffffffffff1663c5e16c1e338b8b8b8b8b8b8b6040518963ffffffff1660e01b81526004016117289897969594939291906133b8565b600060405180830381600087803b15801561174257600080fd5b505af1158015611756573d6000803e3d6000fd5b505050507f89a9f03eebe04f13795943cbdfd1e43e6326841c8962dde05c51a48a54db5691338a8a8a8a8a8a8a6040516117979897969594939291906133b8565b60405180910390a1505050505050505050565b60008054906101000a900473ffffffffffffffffffffffffffffffffffffffff1673ffffffffffffffffffffffffffffffffffffffff1663cd905dff6040518163ffffffff1660e01b8152600401602060405180830381865afa158015611815573d6000803e3d6000fd5b505050506040513d601f19601f8201168201806040525081019061183991906129f3565b611878576040517f08c379a000000000000000000000000000000000000000000000000000000000815260040161186f90612aa3565b60405180910390fd5b678ac7230489e8000034146118c2576040517f08c379a00000000000000000000000000000000000000000000000000000000081526004016118b990613498565b60405180910390fd5b60008054906101000a900473ffffffffffffffffffffffffffffffffffffffff1673ffffffffffffffffffffffffffffffffffffffff166108fc349081150290604051600060405180830381858888f19350505050158015611928573d6000803e3d6000fd5b5060008054906101000a900473ffffffffffffffffffffffffffffffffffffffff1673ffffffffffffffffffffffffffffffffffffffff16636fbb8798336040518263ffffffff1660e01b81526004016119829190612b3e565b600060405180830381600087803b15801561199c57600080fd5b505af11580156119b0573d6000803e3d6000fd5b505050507fe3e3c2f23f7445131259937f93b9ed0c075fe06c9d702be2d7ac549d0ec5fc3233346040516119e59291906134b8565b60405180910390a1565b60008054906101000a900473ffffffffffffffffffffffffffffffffffffffff1673ffffffffffffffffffffffffffffffffffffffff1663cd905dff6040518163ffffffff1660e01b8152600401602060405180830381865afa158015611a5a573d6000803e3d6000fd5b505050506040513d601f19601f82011682018060405250810190611a7e91906129f3565b611abd576040517f08c379a0000000000000000000000000000000000000000000000000000000008152600401611ab490612aa3565b60405180910390fd5b8560ff16600460003373ffffffffffffffffffffffffffffffffffffffff1673ffffffffffffffffffffffffffffffffffffffff168152602001908152602001600020600101600060038110611b1657611b15612e06565b5b602091828204019190069054906101000a900460ff1660ff161480611baa57508560ff16600460003373ffffffffffffffffffffffffffffffffffffffff1673ffffffffffffffffffffffffffffffffffffffff168152602001908152602001600020600101600160038110611b8f57611b8e612e06565b5b602091828204019190069054906101000a900460ff1660ff16145b80611c2457508560ff16600460003373ffffffffffffffffffffffffffffffffffffffff1673ffffffffffffffffffffffffffffffffffffffff168152602001908152602001600020600101600260038110611c0957611c08612e06565b5b602091828204019190069054906101000a900460ff1660ff16145b611c63576040517f08c379a0000000000000000000000000000000000000000000000000000000008152600401611c5a90613553565b60405180910390fd5b60008686868686604051602001611c7e959493929190613642565b6040516020818303038152906040528051906020012060001c90506005600082815260200190815260200160002060000160149054906101000a900460ff16611cfc576040517f08c379a0000000000000000000000000000000000000000000000000000000008152600401611cf390613700565b60405180910390fd5b6005600082815260200190815260200160002060010160008360ff1660ff168152602001908152602001600020339080600181540180825580915050600190039060005260206000200160009091909190916101000a81548173ffffffffffffffffffffffffffffffffffffffff021916908373ffffffffffffffffffffffffffffffffffffffff1602179055507f43c853095c2752648493c88b4baac4d580d2594ffb00c6f1d4242d844514f7838686868686604051611dc195949392919061372f565b60405180910390a17fe23f5229de535c091e3b7bec2665f5d698192d3b31393066e8987b7a05076b6c8686868686604051611e0095949392919061372f565b60405180910390a160036005600083815260200190815260200160002060010160008460ff1660ff1681526020019081526020016000208054905010611e9157611e908686868080601f016020809104026020016040519081016040528093929190818152602001838380828437600081840152601f19601f820116905080830192505050505050508585612182565b5b50505050505050565b6000611ea5336122e7565b905060008186868686604051602001611ec2959493929190613642565b6040516020818303038152906040528051906020012060001c90506000600560008381526020019081526020016000209050338160000160006101000a81548173ffffffffffffffffffffffffffffffffffffffff021916908373ffffffffffffffffffffffffffffffffffffffff16021790555060018160000160146101000a81548160ff0219169083151502179055507f3ed01f2c3fc24c6b329d931e35b03e390d23497d22b3f90e15b600343e93df118388888888604051611f8b95949392919061377d565b60405180910390a150505050505050565b611fa46124d7565b611fac6124d7565b611fb5836122e7565b81600060038110611fc957611fc8612e06565b5b602002019060ff16908160ff168152505080600060038110611fee57611fed612e06565b5b60200201518160016003811061200757612006612e06565b5b602002019060ff16908160ff16815250505b8060006003811061202d5761202c612e06565b5b602002015160ff168160016003811061204957612048612e06565b5b602002015160ff16036120895761205f836122e7565b8160016003811061207357612072612e06565b5b602002019060ff16908160ff1681525050612019565b8060016003811061209d5761209c612e06565b5b6020020151816002600381106120b6576120b5612e06565b5b602002019060ff16908160ff16815250505b806000600381106120dc576120db612e06565b5b602002015160ff16816002600381106120f8576120f7612e06565b5b602002015160ff16148061214157508060016003811061211b5761211a612e06565b5b602002015160ff168160026003811061213757612136612e06565b5b602002015160ff16145b156121795761214f836122e7565b8160026003811061216357612162612e06565b5b602002019060ff16908160ff16815250506120c8565b80915050919050565b60008054906101000a900473ffffffffffffffffffffffffffffffffffffffff1673ffffffffffffffffffffffffffffffffffffffff1663cd905dff6040518163ffffffff1660e01b8152600401602060405180830381865afa1580156121ed573d6000803e3d6000fd5b505050506040513d601f19601f8201168201806040525081019061221191906129f3565b612250576040517f08c379a000000000000000000000000000000000000000000000000000000000815260040161224790612aa3565b60405180910390fd5b60008054906101000a900473ffffffffffffffffffffffffffffffffffffffff1673ffffffffffffffffffffffffffffffffffffffff1663e7bdde3b858585856040518563ffffffff1660e01b81526004016122af9493929190613842565b600060405180830381600087803b1580156122c957600080fd5b505af11580156122dd573d6000803e3d6000fd5b5050505050505050565b600080600a905060008160ff166003600081819054906101000a900460ff16809291906123139061388e565b91906101000a81548160ff021916908360ff16021790555060ff164361233991906138b7565b408560405160200161234c929190613916565b6040516020818303038152906040528051906020012060001c61236f9190613942565b905060fa600360009054906101000a900460ff1660ff1611156123a9576000600360006101000a81548160ff021916908360ff1602179055505b8092505050919050565b82805482825590600052602060002090810192821561242c579160200282015b8281111561242b5782518260006101000a81548173ffffffffffffffffffffffffffffffffffffffff021916908373ffffffffffffffffffffffffffffffffffffffff160217905550916020019190600101906123d3565b5b50905061243991906124f9565b5090565b826003601f016020900481019282156124c65791602002820160005b8382111561249757835183826101000a81548160ff021916908360ff1602179055509260200192600101602081600001049283019260010302612459565b80156124c45782816101000a81549060ff0219169055600101602081600001049283019260010302612497565b505b5090506124d391906124f9565b5090565b6040518060600160405280600390602082028036833780820191505090505090565b5b808211156125125760008160009055506001016124fa565b5090565b6000604051905090565b600080fd5b600080fd5b600080fd5b600080fd5b600080fd5b60008083601f84011261254f5761254e61252a565b5b8235905067ffffffffffffffff81111561256c5761256b61252f565b5b60208301915083600182028301111561258857612587612534565b5b9250929050565b600073ffffffffffffffffffffffffffffffffffffffff82169050919050565b60006125ba8261258f565b9050919050565b6125ca816125af565b81146125d557600080fd5b50565b6000813590506125e7816125c1565b92915050565b60008060006040848603121561260657612605612520565b5b600084013567ffffffffffffffff81111561262457612623612525565b5b61263086828701612539565b93509350506020612643868287016125d8565b9150509250925092565b60008115159050919050565b6126628161264d565b82525050565b6000819050919050565b61267b81612668565b82525050565b60006040820190506126966000830185612659565b6126a36020830184612672565b9392505050565b6126b381612668565b81146126be57600080fd5b50565b6000813590506126d0816126aa565b92915050565b600080600080606085870312156126f0576126ef612520565b5b60006126fe878288016125d8565b945050602085013567ffffffffffffffff81111561271f5761271e612525565b5b61272b87828801612539565b9350935050604061273e878288016126c1565b91505092959194509250565b600060039050919050565b600081905092915050565b6000819050919050565b600060ff82169050919050565b6127808161276a565b82525050565b60006127928383612777565b60208301905092915050565b6000602082019050919050565b6127b48161274a565b6127be8184612755565b92506127c982612760565b8060005b838110156127fa5781516127e18782612786565b96506127ec8361279e565b9250506001810190506127cd565b505050505050565b600060608201905061281760008301846127ab565b92915050565b60006020820190506128326000830184612672565b92915050565b60008060008060008060006080888a03121561285757612856612520565b5b600088013567ffffffffffffffff81111561287557612874612525565b5b6128818a828b01612539565b9750975050602088013567ffffffffffffffff8111156128a4576128a3612525565b5b6128b08a828b01612539565b9550955050604088013567ffffffffffffffff8111156128d3576128d2612525565b5b6128df8a828b01612539565b935093505060606128f28a828b016126c1565b91505092959891949750929550565b61290a8161276a565b811461291557600080fd5b50565b60008135905061292781612901565b92915050565b60008060008060008060a0878903121561294a57612949612520565b5b600061295889828a01612918565b965050602061296989828a016125d8565b955050604087013567ffffffffffffffff81111561298a57612989612525565b5b61299689828a01612539565b945094505060606129a989828a016126c1565b92505060806129ba89828a01612918565b9150509295509295509295565b6129d08161264d565b81146129db57600080fd5b50565b6000815190506129ed816129c7565b92915050565b600060208284031215612a0957612a08612520565b5b6000612a17848285016129de565b91505092915050565b600082825260208201905092915050565b7f436f6e74726163742069732063757272656e746c79206e6f74206f706572617460008201527f696f6e616c000000000000000000000000000000000000000000000000000000602082015250565b6000612a8d602583612a20565b9150612a9882612a31565b604082019050919050565b60006020820190508181036000830152612abc81612a80565b9050919050565b7f496e76616c696420616464726573730000000000000000000000000000000000600082015250565b6000612af9600f83612a20565b9150612b0482612ac3565b602082019050919050565b60006020820190508181036000830152612b2881612aec565b9050919050565b612b38816125af565b82525050565b6000602082019050612b536000830184612b2f565b92915050565b7f4f6e6c79206578697374696e6720616e642066756e646564206169726c696e6560008201527f732061726520616c6c6f77656400000000000000000000000000000000000000602082015250565b6000612bb5602d83612a20565b9150612bc082612b59565b604082019050919050565b60006020820190508181036000830152612be481612ba8565b9050919050565b6000601f19601f8301169050919050565b7f4e487b7100000000000000000000000000000000000000000000000000000000600052604160045260246000fd5b612c3482612beb565b810181811067ffffffffffffffff82111715612c5357612c52612bfc565b5b80604052505050565b6000612c66612516565b9050612c728282612c2b565b919050565b600067ffffffffffffffff821115612c9257612c91612bfc565b5b602082029050602081019050919050565b600081519050612cb2816125c1565b92915050565b6000612ccb612cc684612c77565b612c5c565b90508083825260208201905060208402830185811115612cee57612ced612534565b5b835b81811015612d175780612d038882612ca3565b845260208401935050602081019050612cf0565b5050509392505050565b600082601f830112612d3657612d3561252a565b5b8151612d46848260208601612cb8565b91505092915050565b600060208284031215612d6557612d64612520565b5b600082015167ffffffffffffffff811115612d8357612d82612525565b5b612d8f84828501612d21565b91505092915050565b82818337600083830152505050565b6000612db38385612a20565b9350612dc0838584612d98565b612dc983612beb565b840190509392505050565b60006040820190508181036000830152612def818587612da7565b9050612dfe6020830184612b2f565b949350505050565b7f4e487b7100000000000000000000000000000000000000000000000000000000600052603260045260246000fd5b7f4e487b7100000000000000000000000000000000000000000000000000000000600052601160045260246000fd5b6000612e6f82612668565b91507fffffffffffffffffffffffffffffffffffffffffffffffffffffffffffffffff8203612ea157612ea0612e35565b5b600182019050919050565b7f43616c6c65722068617320616c72656164792063616c6c65642074686973206660008201527f756e6374696f6e2e000000000000000000000000000000000000000000000000602082015250565b6000612f08602883612a20565b9150612f1382612eac565b604082019050919050565b60006020820190508181036000830152612f3781612efb565b9050919050565b7f4e487b7100000000000000000000000000000000000000000000000000000000600052601260045260246000fd5b6000612f7882612668565b9150612f8383612668565b925082612f9357612f92612f3e565b5b828204905092915050565b60006080820190508181036000830152612fb9818789612da7565b9050612fc86020830186612b2f565b612fd56040830185612659565b612fe26060830184612672565b9695505050505050565b7f496e737572616e63652076616c7565206973206e6f742077697468696e20746860008201527f65206c696d697473000000000000000000000000000000000000000000000000602082015250565b6000613048602883612a20565b915061305382612fec565b604082019050919050565b600060208201905081810360008301526130778161303b565b9050919050565b60006060820190506130936000830187612b2f565b81810360208301526130a6818587612da7565b90506130b56040830184612672565b95945050505050565b7f466c69676874206973206e6f7420726567697374657265640000000000000000600082015250565b60006130f4601883612a20565b91506130ff826130be565b602082019050919050565b60006020820190508181036000830152613123816130e7565b9050919050565b7f466c6967687420616c7265616479206c616e6465640000000000000000000000600082015250565b6000613160601583612a20565b915061316b8261312a565b602082019050919050565b6000602082019050818103600083015261318f81613153565b9050919050565b60006080820190506131ab6000830188612b2f565b6131b86020830187612b2f565b81810360408301526131cb818587612da7565b90506131da6060830184612672565b9695505050505050565b7f50617373656e67657220616c726561647920626f7567687420696e737572616e60008201527f636520666f72207468697320666c696768740000000000000000000000000000602082015250565b6000613240603283612a20565b915061324b826131e4565b604082019050919050565b6000602082019050818103600083015261326f81613233565b9050919050565b600060c08201905061328b600083018a612b2f565b818103602083015261329e81888a612da7565b90506132ad6040830187612672565b6132ba6060830186612b2f565b6132c76080830185612672565b6132d460a0830184612672565b98975050505050505050565b7f526567697374726174696f6e2066656520697320726571756972656400000000600082015250565b6000613316601c83612a20565b9150613321826132e0565b602082019050919050565b6000602082019050818103600083015261334581613309565b9050919050565b7f4e6f74207265676973746572656420617320616e206f7261636c650000000000600082015250565b6000613382601b83612a20565b915061338d8261334c565b602082019050919050565b600060208201905081810360008301526133b181613375565b9050919050565b600060a0820190506133cd600083018b612b2f565b81810360208301526133e081898b612da7565b905081810360408301526133f5818789612da7565b9050818103606083015261340a818587612da7565b90506134196080830184612672565b9998505050505050505050565b7f4e6f7420636f72726563742066756e64696e672076616c7565207375626d697460008201527f7465640000000000000000000000000000000000000000000000000000000000602082015250565b6000613482602383612a20565b915061348d82613426565b604082019050919050565b600060208201905081810360008301526134b181613475565b9050919050565b60006040820190506134cd6000830185612b2f565b6134da6020830184612672565b9392505050565b7f496e64657820646f6573206e6f74206d61746368206f7261636c65207265717560008201527f6573740000000000000000000000000000000000000000000000000000000000602082015250565b600061353d602383612a20565b9150613548826134e1565b604082019050919050565b6000602082019050818103600083015261356c81613530565b9050919050565b60008160f81b9050919050565b600061358b82613573565b9050919050565b6135a361359e8261276a565b613580565b82525050565b60008160601b9050919050565b60006135c1826135a9565b9050919050565b60006135d3826135b6565b9050919050565b6135eb6135e6826125af565b6135c8565b82525050565b600081905092915050565b600061360883856135f1565b9350613615838584612d98565b82840190509392505050565b6000819050919050565b61363c61363782612668565b613621565b82525050565b600061364e8288613592565b60018201915061365e82876135da565b60148201915061366f8285876135fc565b915061367b828461362b565b6020820191508190509695505050505050565b7f466c69676874206f722074696d657374616d7020646f206e6f74206d6174636860008201527f206f7261636c6520726571756573740000000000000000000000000000000000602082015250565b60006136ea602f83612a20565b91506136f58261368e565b604082019050919050565b60006020820190508181036000830152613719816136dd565b9050919050565b6137298161276a565b82525050565b60006080820190506137446000830188612b2f565b8181036020830152613757818688612da7565b90506137666040830185612672565b6137736060830184613720565b9695505050505050565b60006080820190506137926000830188613720565b61379f6020830187612b2f565b81810360408301526137b2818587612da7565b90506137c16060830184612672565b9695505050505050565b600081519050919050565b60005b838110156137f45780820151818401526020810190506137d9565b83811115613803576000848401525b50505050565b6000613814826137cb565b61381e8185612a20565b935061382e8185602086016137d6565b61383781612beb565b840191505092915050565b60006080820190506138576000830187612b2f565b81810360208301526138698186613809565b90506138786040830185612672565b6138856060830184613720565b95945050505050565b60006138998261276a565b915060ff82036138ac576138ab612e35565b5b600182019050919050565b60006138c282612668565b91506138cd83612668565b9250828210156138e0576138df612e35565b5b828203905092915050565b6000819050919050565b6000819050919050565b61391061390b826138eb565b6138f5565b82525050565b600061392282856138ff565b60208201915061393282846135da565b6014820191508190509392505050565b600061394d82612668565b915061395883612668565b92508261396857613967612f3e565b5b82820690509291505056fea26469706673582212201222c8668ef776e4ef6f78f09ac6f6fbe1b20f2305595655ac49be433b3592d964736f6c634300080e0033",
  "immutableReferences": {},
  "source": "// SPDX-License-Identifier: MIT\n\npragma solidity >=0.4.22 <0.9.0;\n\n// import \"../node_modules/openzeppelin-solidity/contracts/utils/math/SafeMath.sol\";\n\ncontract FlightSuretyApp {\n    // Data Variables //\n\n    // FlightSurety data contract\n    FlightSuretyData flightSuretyData;\n\n    // Account used to deploy contract\n    address private contractOwner;\n\n    // Airline\n    uint256 constant AIRLINE_FUNDING_VALUE = 10 ether;\n\n    // Multi-party consensus for airline registration\n    mapping(address => address[]) private registerAirlineMultiCalls;\n\n    // Registration of fifth and subsequent airlines requires multi-party consensus of 50% of registered airlines\n    uint256 constant REGISTER_AIRLINE_MULTI_CALL_THRESHOLD = 4;\n\n    uint256 constant REGISTER_AIRLINE_MULTI_CALL_CONSENSUS_DIVISOR = 2;\n\n    // Insurance\n\n    // Passenger Payment: Passengers may pay up to 1 ether for purchasing flight insurance\n    uint256 constant MAX_PASSENGER_INSURANCE_VALUE = 1 ether;\n\n    // Insurance multiplier in percentage\n    uint256 constant INSURANCE_MULTIPLIER = 150; // 150%\n\n    // Constructor //\n\n    constructor(address dataContract) {\n        contractOwner = msg.sender;\n        flightSuretyData = FlightSuretyData(dataContract);\n    }\n\n    // Modifiers //\n\n    /**\n     * @dev Modifer that requires the \"operational\" boolean variable to be \"true\"\n     */\n    modifier requireIsOperational() {\n        // Modify to call data contract's status\n        require(\n            flightSuretyData.isOperational(),\n            \"Contract is currently not operational\"\n        );\n        _;\n    }\n\n    /**\n     * @dev Modifier that requires address to be valid\n     */\n    modifier requireValidAddress(address addr) {\n        require(addr != address(0), \"Invalid address\");\n        _;\n    }\n\n    /**\n     * @dev Modifier that requires airline to be funded\n     */\n    modifier requireAirlineIsFunded(address airline) {\n        require(\n            flightSuretyData.isFundedAirline(airline),\n            \"Only existing and funded airlines are allowed\"\n        );\n        _;\n    }\n\n    // Events //\n\n    event AirlineFunded(address addr, uint256 amount);\n    event AirlineRegistered(\n        string name,\n        address addr,\n        bool success,\n        uint256 votes\n    );\n    event FlightRegistered(\n        address airline,\n        string flight,\n        string from,\n        string to,\n        uint256 timestamp\n    );\n    event InsuranceBought(\n        address airline,\n        string flight,\n        uint256 timestamp,\n        address passenger,\n        uint256 amount,\n        uint256 multiplier\n    );\n\n    // Smart Contract Functions //\n\n    /**\n     * @dev Add an airline to the registration queue\n     */\n    function registerAirline(string calldata name, address addr)\n        public\n        requireIsOperational\n        requireValidAddress(addr)\n        requireAirlineIsFunded(msg.sender)\n        returns (bool success, uint256 votes)\n    {\n        bool result = false;\n        address[] memory registeredAirlines = flightSuretyData\n            .getRegisteredAirlines();\n\n        // Register first airline\n        if (registeredAirlines.length == 0) {\n            result = flightSuretyData.registerAirline(name, addr);\n        } else if (\n            registeredAirlines.length < REGISTER_AIRLINE_MULTI_CALL_THRESHOLD\n        ) {\n            result = flightSuretyData.registerAirline(name, addr);\n        }\n        // Multiparty Consensus: Registration of fifth and subsequent airlines requires multi-party consensus of 50% of registered airlines\n        else {\n            bool isDuplicate = false;\n\n            for (\n                uint256 i = 0;\n                i < registerAirlineMultiCalls[addr].length;\n                i++\n            ) {\n                if (registerAirlineMultiCalls[addr][i] == msg.sender) {\n                    isDuplicate = true;\n                    break;\n                }\n            }\n\n            require(!isDuplicate, \"Caller has already called this function.\");\n\n            registerAirlineMultiCalls[addr].push(msg.sender);\n\n            if (\n                registerAirlineMultiCalls[addr].length >=\n                registeredAirlines.length /\n                    REGISTER_AIRLINE_MULTI_CALL_CONSENSUS_DIVISOR\n            ) {\n                result = flightSuretyData.registerAirline(name, addr);\n                registerAirlineMultiCalls[addr] = new address[](0);\n            }\n        }\n\n        emit AirlineRegistered(\n            name,\n            addr,\n            result,\n            registerAirlineMultiCalls[addr].length\n        );\n        return (result, registerAirlineMultiCalls[addr].length);\n    }\n\n    /**\n     * @dev Submit funding for airline\n     */\n    function fundAirline() external payable requireIsOperational {\n        require(\n            msg.value == AIRLINE_FUNDING_VALUE,\n            \"Not correct funding value submitted\"\n        );\n\n        // Cast address to payable address\n        payable(address(flightSuretyData)).transfer(msg.value);\n\n        flightSuretyData.fundAirline(msg.sender);\n\n        emit AirlineFunded(msg.sender, msg.value);\n    }\n\n    /**\n     * @dev Register a flight\n     */\n    function registerFlight(\n        string calldata flight,\n        string calldata from,\n        string calldata to,\n        uint256 timestamp\n    )\n        external\n        requireIsOperational\n        requireValidAddress(msg.sender)\n        requireAirlineIsFunded(msg.sender)\n    {\n        // Register Flight\n        flightSuretyData.registerFlight(\n            msg.sender,\n            flight,\n            from,\n            to,\n            timestamp\n        );\n        emit FlightRegistered(msg.sender, flight, from, to, timestamp);\n    }\n\n    /**\n     * @dev Buy insurance for a flight\n     */\n    function buyInsurance(\n        address airline,\n        string calldata flight,\n        uint256 timestamp\n    ) external payable requireIsOperational {\n        require(\n            msg.value > 0 && msg.value <= MAX_PASSENGER_INSURANCE_VALUE,\n            \"Insurance value is not within the limits\"\n        );\n        require(\n            flightSuretyData.isFlight(airline, flight, timestamp),\n            \"Flight is not registered\"\n        );\n        require(\n            !flightSuretyData.isLandedFlight(airline, flight, timestamp),\n            \"Flight already landed\"\n        );\n        require(\n            !flightSuretyData.isInsured(msg.sender, airline, flight, timestamp),\n            \"Passenger already bought insurance for this flight\"\n        );\n\n        // Cast address to payable address\n        payable(address(flightSuretyData)).transfer(msg.value);\n\n        // Store airline information\n        flightSuretyData.buy(\n            airline,\n            flight,\n            timestamp,\n            msg.sender,\n            msg.value,\n            INSURANCE_MULTIPLIER\n        );\n\n        emit InsuranceBought(\n            airline,\n            flight,\n            timestamp,\n            msg.sender,\n            msg.value,\n            INSURANCE_MULTIPLIER\n        );\n    }\n\n    /// Oracle Management ///\n\n    // Data Variables //\n\n    // Incremented to add pseudo-randomness at various points\n    uint8 private nonce = 0;\n\n    // Fee to be paid when registering oracle\n    uint256 public constant REGISTRATION_FEE = 1 ether;\n\n    // Number of oracles that must respond for valid status\n    uint256 private constant MIN_RESPONSES = 3;\n\n    struct Oracle {\n        bool isRegistered;\n        uint8[3] indexes;\n    }\n\n    // Track all registered oracles\n    mapping(address => Oracle) private oracles;\n\n    // Model for responses from oracles\n    struct ResponseInfo {\n        address requester; // Account that requested status\n        bool isOpen; // If open, oracle responses are accepted\n        mapping(uint8 => address[]) responses; // Mapping key is the status code reported\n        // This lets us group responses and identify\n        // the response that majority of the oracles\n    }\n\n    mapping(uint256 => ResponseInfo) oracleResponses;\n\n    // Event fired each time an oracle submits a response\n    event FlightStatusInfo(\n        address airline,\n        string flight,\n        uint256 timestamp,\n        uint8 status\n    );\n\n    event OracleReport(\n        address airline,\n        string flight,\n        uint256 timestamp,\n        uint8 status\n    );\n\n    /**\n     * @dev Event fired when flight status request is submitted\n     * Oracles track this and if they have a matching index they\n     * fetch data and submit a response\n     */\n    event OracleRequest(\n        uint8 index,\n        address airline,\n        string flight,\n        uint256 timestamp\n    );\n\n    /**\n     * @dev Register an oracle\n     */\n    function registerOracle() external payable requireIsOperational {\n        // Require registration fee\n        require(msg.value >= REGISTRATION_FEE, \"Registration fee is required\");\n\n        uint8[3] memory indexes = generateIndexes(msg.sender);\n\n        oracles[msg.sender] = Oracle({isRegistered: true, indexes: indexes});\n    }\n\n    /**\n     * @dev Get the indexes from a registered oracle\n     */\n    function getMyIndexes()\n        external\n        view\n        requireIsOperational\n        returns (uint8[3] memory)\n    {\n        require(\n            oracles[msg.sender].isRegistered,\n            \"Not registered as an oracle\"\n        );\n\n        return oracles[msg.sender].indexes;\n    }\n\n    /**\n     * @dev Called by the oracle when a response is available to an outstanding request\n     * For the response to be accepted, there must be a pending request that is open\n     * and matches one of the three Indexes randomly assigned to the oracle at the time\n     * of registration. Uninvited oracles are not welcome\n     */\n    function submitOracleResponse(\n        uint8 index,\n        address airline,\n        string calldata flight,\n        uint256 timestamp,\n        uint8 statusCode\n    ) external requireIsOperational {\n        require(\n            (oracles[msg.sender].indexes[0] == index) ||\n                (oracles[msg.sender].indexes[1] == index) ||\n                (oracles[msg.sender].indexes[2] == index),\n            \"Index does not match oracle request\"\n        );\n\n        uint256 key = uint256(\n            keccak256(abi.encodePacked(index, airline, flight, timestamp))\n        );\n\n        require(\n            oracleResponses[key].isOpen,\n            \"Flight or timestamp do not match oracle request\"\n        );\n\n        oracleResponses[key].responses[statusCode].push(msg.sender);\n\n        // Information isn't considered verified until at least MIN_RESPONSES\n        // oracles respond with the *** same *** information\n        emit OracleReport(airline, flight, timestamp, statusCode);\n\n        emit FlightStatusInfo(airline, flight, timestamp, statusCode);\n\n        if (\n            oracleResponses[key].responses[statusCode].length >= MIN_RESPONSES\n        ) {\n            // Handle flight status as appropriate\n            processFlightStatus(airline, flight, timestamp, statusCode);\n        }\n    }\n\n    /**\n     * @dev Get a key associated to a given flight\n     */\n    function getFlightKey(\n        address airline,\n        string memory flight,\n        uint256 timestamp\n    ) internal pure returns (bytes32) {\n        return keccak256(abi.encodePacked(airline, flight, timestamp));\n    }\n\n    /**\n     * @dev Returns an array of 3 non-duplicating integers from 0 to 9\n     */\n    function generateIndexes(address account)\n        internal\n        returns (uint8[3] memory)\n    {\n        uint8[3] memory indexes;\n        indexes[0] = getRandomIndex(account);\n\n        indexes[1] = indexes[0];\n        while (indexes[1] == indexes[0]) {\n            indexes[1] = getRandomIndex(account);\n        }\n\n        indexes[2] = indexes[1];\n        while ((indexes[2] == indexes[0]) || (indexes[2] == indexes[1])) {\n            indexes[2] = getRandomIndex(account);\n        }\n\n        return indexes;\n    }\n\n    /**\n     * @dev Returns an array of 3 non-duplicating integers from 0 to 9\n     */\n    function getRandomIndex(address account) internal returns (uint8) {\n        uint8 maxValue = 10;\n\n        // Pseudo random number...the incrementing nonce adds variation\n        uint8 random = uint8(\n            uint256(\n                keccak256(\n                    abi.encodePacked(blockhash(block.number - nonce++), account)\n                )\n            ) % maxValue\n        );\n\n        if (nonce > 250) {\n            nonce = 0; // Can only fetch blockhashes for last 256 blocks so we adapt\n        }\n\n        return random;\n    }\n\n    /**\n     * @dev Called after oracle has updated flight status\n     */\n    function processFlightStatus(\n        address airline,\n        string memory flight,\n        uint256 timestamp,\n        uint8 statusCode\n    ) internal requireIsOperational {\n        flightSuretyData.processFlightStatus(\n            airline,\n            flight,\n            timestamp,\n            statusCode\n        );\n    }\n\n    /**\n     * @dev Generate a request for oracles to fetch flight information\n     */\n    function fetchFlightStatus(\n        address airline,\n        string calldata flight,\n        uint256 timestamp\n    ) external {\n        uint8 index = getRandomIndex(msg.sender);\n\n        // Generate a unique key for storing the request\n        uint256 key = uint256(\n            keccak256(abi.encodePacked(index, airline, flight, timestamp))\n        );\n\n        ResponseInfo storage r = oracleResponses[key];\n        r.requester = msg.sender;\n        r.isOpen = true;\n\n        emit OracleRequest(index, airline, flight, timestamp);\n    }\n\n    /**\n     * @dev Transfers eligible payout funds to insuree\n     */\n    function pay() public requireIsOperational {\n        flightSuretyData.pay(msg.sender);\n    }\n}\n\n// FlightSurety data contract interface\nabstract contract FlightSuretyData {\n    // Utility functions\n    function isOperational() public view virtual returns (bool);\n\n    function setOperatingStatus(bool mode) external virtual;\n\n    // Airlines\n    function registerAirline(string calldata name, address addr)\n        external\n        virtual\n        returns (bool);\n\n    function isFundedAirline(address airline)\n        external\n        view\n        virtual\n        returns (bool);\n\n    function fundAirline(address addr) external payable virtual;\n\n    function getRegisteredAirlines()\n        external\n        view\n        virtual\n        returns (address[] memory);\n\n    // Flights\n    function registerFlight(\n        address airline,\n        string calldata flight,\n        string calldata from,\n        string calldata to,\n        uint256 timestamp\n    ) external virtual;\n\n    function isFlight(\n        address airline,\n        string calldata flight,\n        uint256 timestamp\n    ) external view virtual returns (bool);\n\n    function isLandedFlight(\n        address airline,\n        string calldata flight,\n        uint256 timestamp\n    ) external view virtual returns (bool);\n\n    function processFlightStatus(\n        address airline,\n        string calldata flight,\n        uint256 timestamp,\n        uint8 statusCode\n    ) external virtual;\n\n    function getFlightStatusCode(\n        address airline,\n        string calldata flight,\n        uint256 timestamp\n    ) external view virtual returns (uint8);\n\n    // Insurance\n    function isInsured(\n        address passenger,\n        address airline,\n        string calldata flight,\n        uint256 timestamp\n    ) external view virtual returns (bool);\n\n    // Passengers\n    function buy(\n        address airline,\n        string calldata flight,\n        uint256 timestamp,\n        address passenger,\n        uint256 amount,\n        uint256 multiplier\n    ) external payable virtual;\n\n    function pay(address passenger) external virtual;\n}\n",
  "sourcePath": "/home/peter/FlightSurety/contracts/FlightSuretyApp.sol",
  "compiler": {
    "name": "solc",
    "version": "0.8.14+commit.80d49f37.Emscripten.clang"
  },
  "schemaVersion": "3.4.7",
  "updatedAt": "2022-06-12T08:46:11.245Z",
  "devdoc": {
    "events": {
      "OracleRequest(uint8,address,string,uint256)": {
        "details": "Event fired when flight status request is submitted Oracles track this and if they have a matching index they fetch data and submit a response"
      }
    },
    "kind": "dev",
    "methods": {
      "buyInsurance(address,string,uint256)": {
        "details": "Buy insurance for a flight"
      },
      "fetchFlightStatus(address,string,uint256)": {
        "details": "Generate a request for oracles to fetch flight information"
      },
      "fundAirline()": {
        "details": "Submit funding for airline"
      },
      "getMyIndexes()": {
        "details": "Get the indexes from a registered oracle"
      },
      "pay()": {
        "details": "Transfers eligible payout funds to insuree"
      },
      "registerAirline(string,address)": {
        "details": "Add an airline to the registration queue"
      },
      "registerFlight(string,string,string,uint256)": {
        "details": "Register a flight"
      },
      "registerOracle()": {
        "details": "Register an oracle"
      },
      "submitOracleResponse(uint8,address,string,uint256,uint8)": {
        "details": "Called by the oracle when a response is available to an outstanding request For the response to be accepted, there must be a pending request that is open and matches one of the three Indexes randomly assigned to the oracle at the time of registration. Uninvited oracles are not welcome"
      }
    },
    "version": 1
  },
  "userdoc": {
    "kind": "user",
    "methods": {},
    "version": 1
  }
}